{
  "address": "0xCB0536Db7620AE44CB804f839CDdE1c13E9D319a",
  "abi": [
    {
      "inputs": [
        {
          "internalType": "address",
          "name": "_contractTest",
          "type": "address"
        }
      ],
      "stateMutability": "nonpayable",
      "type": "constructor"
    },
    {
      "anonymous": false,
      "inputs": [
        {
          "indexed": true,
          "internalType": "address",
          "name": "owner",
          "type": "address"
        },
        {
          "indexed": true,
          "internalType": "address",
          "name": "spender",
          "type": "address"
        },
        {
          "indexed": false,
          "internalType": "uint256",
          "name": "value",
          "type": "uint256"
        }
      ],
      "name": "Approval",
      "type": "event"
    },
    {
      "anonymous": false,
      "inputs": [
        {
          "indexed": false,
          "internalType": "bool",
          "name": "enabled",
          "type": "bool"
        }
      ],
      "name": "BuyBackEnabledUpdated",
      "type": "event"
    },
    {
      "anonymous": false,
      "inputs": [
        {
          "indexed": true,
          "internalType": "address",
          "name": "previousOwner",
          "type": "address"
        },
        {
          "indexed": true,
          "internalType": "address",
          "name": "newOwner",
          "type": "address"
        }
      ],
      "name": "OwnershipTransferred",
      "type": "event"
    },
    {
      "anonymous": false,
      "inputs": [
        {
          "indexed": false,
          "internalType": "uint256",
          "name": "tokenAmount",
          "type": "uint256"
        }
      ],
      "name": "RewardLiquidityProviders",
      "type": "event"
    },
    {
      "anonymous": false,
      "inputs": [
        {
          "indexed": false,
          "internalType": "uint256",
          "name": "tokensSwapped",
          "type": "uint256"
        },
        {
          "indexed": false,
          "internalType": "uint256",
          "name": "ethReceived",
          "type": "uint256"
        },
        {
          "indexed": false,
          "internalType": "uint256",
          "name": "tokensIntoLiqudity",
          "type": "uint256"
        }
      ],
      "name": "SwapAndLiquify",
      "type": "event"
    },
    {
      "anonymous": false,
      "inputs": [
        {
          "indexed": false,
          "internalType": "bool",
          "name": "enabled",
          "type": "bool"
        }
      ],
      "name": "SwapAndLiquifyEnabledUpdated",
      "type": "event"
    },
    {
      "anonymous": false,
      "inputs": [
        {
          "indexed": false,
          "internalType": "uint256",
          "name": "amountIn",
          "type": "uint256"
        },
        {
          "indexed": false,
          "internalType": "address[]",
          "name": "path",
          "type": "address[]"
        }
      ],
      "name": "SwapETHForTokens",
      "type": "event"
    },
    {
      "anonymous": false,
      "inputs": [
        {
          "indexed": false,
          "internalType": "uint256",
          "name": "amountIn",
          "type": "uint256"
        },
        {
          "indexed": false,
          "internalType": "address[]",
          "name": "path",
          "type": "address[]"
        }
      ],
      "name": "SwapTokensForETH",
      "type": "event"
    },
    {
      "anonymous": false,
      "inputs": [
        {
          "indexed": true,
          "internalType": "address",
          "name": "from",
          "type": "address"
        },
        {
          "indexed": true,
          "internalType": "address",
          "name": "to",
          "type": "address"
        },
        {
          "indexed": false,
          "internalType": "uint256",
          "name": "value",
          "type": "uint256"
        }
      ],
      "name": "Transfer",
      "type": "event"
    },
    {
      "anonymous": false,
      "inputs": [
        {
          "indexed": false,
          "internalType": "uint256",
          "name": "buyBackUpperLimit",
          "type": "uint256"
        }
      ],
      "name": "onBuybackUpperLimitUpdated",
      "type": "event"
    },
    {
      "anonymous": false,
      "inputs": [
        {
          "indexed": false,
          "internalType": "address",
          "name": "_developmentAddress",
          "type": "address"
        }
      ],
      "name": "onDevelopmentAddressUpdated",
      "type": "event"
    },
    {
      "anonymous": false,
      "inputs": [
        {
          "indexed": false,
          "internalType": "uint256",
          "name": "divisor",
          "type": "uint256"
        }
      ],
      "name": "onDevelopmentDivisorUpdated",
      "type": "event"
    },
    {
      "anonymous": false,
      "inputs": [
        {
          "indexed": false,
          "internalType": "uint256",
          "name": "liquidityFee",
          "type": "uint256"
        }
      ],
      "name": "onLiquidityFeeUpdated",
      "type": "event"
    },
    {
      "anonymous": false,
      "inputs": [
        {
          "indexed": false,
          "internalType": "uint256",
          "name": "maxTxAmount",
          "type": "uint256"
        }
      ],
      "name": "onMaxTxAmountUpdated",
      "type": "event"
    },
    {
      "anonymous": false,
      "inputs": [
        {
          "indexed": false,
          "internalType": "uint256",
          "name": "_minimumTokensBeforeSwap",
          "type": "uint256"
        }
      ],
      "name": "onNumTokensSellToAddToLiquidityUpdated",
      "type": "event"
    },
    {
      "anonymous": false,
      "inputs": [
        {
          "indexed": false,
          "internalType": "address",
          "name": "_rewardAddress",
          "type": "address"
        }
      ],
      "name": "onRewardAddressUpdated",
      "type": "event"
    },
    {
      "anonymous": false,
      "inputs": [
        {
          "indexed": false,
          "internalType": "uint256",
          "name": "divisor",
          "type": "uint256"
        }
      ],
      "name": "onRewardDivisorUpdated",
      "type": "event"
    },
    {
      "anonymous": false,
      "inputs": [
        {
          "indexed": false,
          "internalType": "uint256",
          "name": "fee",
          "type": "uint256"
        }
      ],
      "name": "onTaxFeeUpdated",
      "type": "event"
    },
    {
      "inputs": [],
      "name": "BP",
      "outputs": [
        {
          "internalType": "contract BPContract",
          "name": "",
          "type": "address"
        }
      ],
      "stateMutability": "view",
      "type": "function"
    },
    {
      "inputs": [],
      "name": "BPDisabledForever",
      "outputs": [
        {
          "internalType": "bool",
          "name": "",
          "type": "bool"
        }
      ],
      "stateMutability": "view",
      "type": "function"
    },
    {
      "inputs": [],
      "name": "MAX_LIQUIDITY_FEE",
      "outputs": [
        {
          "internalType": "uint256",
          "name": "",
          "type": "uint256"
        }
      ],
      "stateMutability": "view",
      "type": "function"
    },
    {
      "inputs": [],
      "name": "MAX_TAX_FEE",
      "outputs": [
        {
          "internalType": "uint256",
          "name": "",
          "type": "uint256"
        }
      ],
      "stateMutability": "view",
      "type": "function"
    },
    {
      "inputs": [
        {
          "internalType": "address",
          "name": "newEnabledAddLiquidityAddress",
          "type": "address"
        }
      ],
      "name": "SetEnabledAddLiquidityAddress",
      "outputs": [],
      "stateMutability": "nonpayable",
      "type": "function"
    },
    {
      "inputs": [],
      "name": "Sweep",
      "outputs": [],
      "stateMutability": "nonpayable",
      "type": "function"
    },
    {
      "inputs": [],
      "name": "_enabledAddLiquidityAddress",
      "outputs": [
        {
          "internalType": "address",
          "name": "",
          "type": "address"
        }
      ],
      "stateMutability": "view",
      "type": "function"
    },
    {
      "inputs": [],
      "name": "_liquidityFee",
      "outputs": [
        {
          "internalType": "uint256",
          "name": "",
          "type": "uint256"
        }
      ],
      "stateMutability": "view",
      "type": "function"
    },
    {
      "inputs": [],
      "name": "_maxTxAmount",
      "outputs": [
        {
          "internalType": "uint256",
          "name": "",
          "type": "uint256"
        }
      ],
      "stateMutability": "view",
      "type": "function"
    },
    {
      "inputs": [],
      "name": "_taxFee",
      "outputs": [
        {
          "internalType": "uint256",
          "name": "",
          "type": "uint256"
        }
      ],
      "stateMutability": "view",
      "type": "function"
    },
    {
      "inputs": [],
      "name": "afterPreSale",
      "outputs": [],
      "stateMutability": "nonpayable",
      "type": "function"
    },
    {
      "inputs": [
        {
          "internalType": "address",
          "name": "owner",
          "type": "address"
        },
        {
          "internalType": "address",
          "name": "spender",
          "type": "address"
        }
      ],
      "name": "allowance",
      "outputs": [
        {
          "internalType": "uint256",
          "name": "",
          "type": "uint256"
        }
      ],
      "stateMutability": "view",
      "type": "function"
    },
    {
      "inputs": [
        {
          "internalType": "address",
          "name": "spender",
          "type": "address"
        },
        {
          "internalType": "uint256",
          "name": "amount",
          "type": "uint256"
        }
      ],
      "name": "approve",
      "outputs": [
        {
          "internalType": "bool",
          "name": "",
          "type": "bool"
        }
      ],
      "stateMutability": "nonpayable",
      "type": "function"
    },
    {
      "inputs": [
        {
          "internalType": "address",
          "name": "account",
          "type": "address"
        }
      ],
      "name": "balanceOf",
      "outputs": [
        {
          "internalType": "uint256",
          "name": "",
          "type": "uint256"
        }
      ],
      "stateMutability": "view",
      "type": "function"
    },
    {
      "inputs": [],
      "name": "bpEnabled",
      "outputs": [
        {
          "internalType": "bool",
          "name": "",
          "type": "bool"
        }
      ],
      "stateMutability": "view",
      "type": "function"
    },
    {
      "inputs": [],
      "name": "buyBackEnabled",
      "outputs": [
        {
          "internalType": "bool",
          "name": "",
          "type": "bool"
        }
      ],
      "stateMutability": "view",
      "type": "function"
    },
    {
      "inputs": [],
      "name": "buyBackUpperLimitAmount",
      "outputs": [
        {
          "internalType": "uint256",
          "name": "",
          "type": "uint256"
        }
      ],
      "stateMutability": "view",
      "type": "function"
    },
    {
      "inputs": [],
      "name": "deadAddress",
      "outputs": [
        {
          "internalType": "address",
          "name": "",
          "type": "address"
        }
      ],
      "stateMutability": "view",
      "type": "function"
    },
    {
      "inputs": [],
      "name": "decimals",
      "outputs": [
        {
          "internalType": "uint8",
          "name": "",
          "type": "uint8"
        }
      ],
      "stateMutability": "view",
      "type": "function"
    },
    {
      "inputs": [
        {
          "internalType": "address",
          "name": "spender",
          "type": "address"
        },
        {
          "internalType": "uint256",
          "name": "subtractedValue",
          "type": "uint256"
        }
      ],
      "name": "decreaseAllowance",
      "outputs": [
        {
          "internalType": "bool",
          "name": "",
          "type": "bool"
        }
      ],
      "stateMutability": "nonpayable",
      "type": "function"
    },
    {
      "inputs": [
        {
          "internalType": "uint256",
          "name": "tAmount",
          "type": "uint256"
        }
      ],
      "name": "deliver",
      "outputs": [],
      "stateMutability": "nonpayable",
      "type": "function"
    },
    {
      "inputs": [],
      "name": "developmentAddress",
      "outputs": [
        {
          "internalType": "address payable",
          "name": "",
          "type": "address"
        }
      ],
      "stateMutability": "view",
      "type": "function"
    },
    {
      "inputs": [],
      "name": "developmentDivisor",
      "outputs": [
        {
          "internalType": "uint256",
          "name": "",
          "type": "uint256"
        }
      ],
      "stateMutability": "view",
      "type": "function"
    },
    {
      "inputs": [
        {
          "internalType": "address",
          "name": "account",
          "type": "address"
        }
      ],
      "name": "excludeFromFee",
      "outputs": [],
      "stateMutability": "nonpayable",
      "type": "function"
    },
    {
      "inputs": [
        {
          "internalType": "address",
          "name": "account",
          "type": "address"
        }
      ],
      "name": "excludeFromReward",
      "outputs": [],
      "stateMutability": "nonpayable",
      "type": "function"
    },
    {
      "inputs": [],
      "name": "getTime",
      "outputs": [
        {
          "internalType": "uint256",
          "name": "",
          "type": "uint256"
        }
      ],
      "stateMutability": "view",
      "type": "function"
    },
    {
      "inputs": [
        {
          "internalType": "address",
          "name": "account",
          "type": "address"
        }
      ],
      "name": "includeInFee",
      "outputs": [],
      "stateMutability": "nonpayable",
      "type": "function"
    },
    {
      "inputs": [
        {
          "internalType": "address",
          "name": "account",
          "type": "address"
        }
      ],
      "name": "includeInReward",
      "outputs": [],
      "stateMutability": "nonpayable",
      "type": "function"
    },
    {
      "inputs": [
        {
          "internalType": "address",
          "name": "spender",
          "type": "address"
        },
        {
          "internalType": "uint256",
          "name": "addedValue",
          "type": "uint256"
        }
      ],
      "name": "increaseAllowance",
      "outputs": [
        {
          "internalType": "bool",
          "name": "",
          "type": "bool"
        }
      ],
      "stateMutability": "nonpayable",
      "type": "function"
    },
    {
      "inputs": [
        {
          "internalType": "address",
          "name": "account",
          "type": "address"
        }
      ],
      "name": "isExcludedFromFee",
      "outputs": [
        {
          "internalType": "bool",
          "name": "",
          "type": "bool"
        }
      ],
      "stateMutability": "view",
      "type": "function"
    },
    {
      "inputs": [
        {
          "internalType": "address",
          "name": "account",
          "type": "address"
        }
      ],
      "name": "isExcludedFromReward",
      "outputs": [
        {
          "internalType": "bool",
          "name": "",
          "type": "bool"
        }
      ],
      "stateMutability": "view",
      "type": "function"
    },
    {
      "inputs": [],
      "name": "minimumTokensBeforeSwapAmount",
      "outputs": [
        {
          "internalType": "uint256",
          "name": "",
          "type": "uint256"
        }
      ],
      "stateMutability": "view",
      "type": "function"
    },
    {
      "inputs": [],
      "name": "name",
      "outputs": [
        {
          "internalType": "string",
          "name": "",
          "type": "string"
        }
      ],
      "stateMutability": "view",
      "type": "function"
    },
    {
      "inputs": [],
      "name": "owner",
      "outputs": [
        {
          "internalType": "address",
          "name": "",
          "type": "address"
        }
      ],
      "stateMutability": "view",
      "type": "function"
    },
    {
      "inputs": [],
      "name": "prepareForPreSale",
      "outputs": [],
      "stateMutability": "nonpayable",
      "type": "function"
    },
    {
      "inputs": [
        {
          "internalType": "uint256",
          "name": "tAmount",
          "type": "uint256"
        },
        {
          "internalType": "bool",
          "name": "deductTransferFee",
          "type": "bool"
        }
      ],
      "name": "reflectionFromToken",
      "outputs": [
        {
          "internalType": "uint256",
          "name": "",
          "type": "uint256"
        }
      ],
      "stateMutability": "view",
      "type": "function"
    },
    {
      "inputs": [],
      "name": "renounceOwnership",
      "outputs": [],
      "stateMutability": "nonpayable",
      "type": "function"
    },
    {
      "inputs": [],
      "name": "rewardAddress",
      "outputs": [
        {
          "internalType": "address payable",
          "name": "",
          "type": "address"
        }
      ],
      "stateMutability": "view",
      "type": "function"
    },
    {
      "inputs": [],
      "name": "rewardDivisor",
      "outputs": [
        {
          "internalType": "uint256",
          "name": "",
          "type": "uint256"
        }
      ],
      "stateMutability": "view",
      "type": "function"
    },
    {
      "inputs": [
        {
          "internalType": "address",
          "name": "_bp",
          "type": "address"
        }
      ],
      "name": "setBPAddrss",
      "outputs": [],
      "stateMutability": "nonpayable",
      "type": "function"
    },
    {
      "inputs": [],
      "name": "setBotProtectionDisableForever",
      "outputs": [],
      "stateMutability": "nonpayable",
      "type": "function"
    },
    {
      "inputs": [
        {
          "internalType": "bool",
          "name": "_enabled",
          "type": "bool"
        }
      ],
      "name": "setBpEnabled",
      "outputs": [],
      "stateMutability": "nonpayable",
      "type": "function"
    },
    {
      "inputs": [
        {
          "internalType": "bool",
          "name": "_enabled",
          "type": "bool"
        }
      ],
      "name": "setBuyBackEnabled",
      "outputs": [],
      "stateMutability": "nonpayable",
      "type": "function"
    },
    {
      "inputs": [
        {
          "internalType": "uint256",
          "name": "buyBackLimit",
          "type": "uint256"
        }
      ],
      "name": "setBuybackUpperLimit",
      "outputs": [],
      "stateMutability": "nonpayable",
      "type": "function"
    },
    {
      "inputs": [
        {
          "internalType": "address",
          "name": "_developmentAddress",
          "type": "address"
        }
      ],
      "name": "setDevelopmentAddress",
      "outputs": [],
      "stateMutability": "nonpayable",
      "type": "function"
    },
    {
      "inputs": [
        {
          "internalType": "uint256",
          "name": "divisor",
          "type": "uint256"
        }
      ],
      "name": "setDevelopmentDivisor",
      "outputs": [],
      "stateMutability": "nonpayable",
      "type": "function"
    },
    {
      "inputs": [
        {
          "internalType": "uint256",
          "name": "liquidityFee",
          "type": "uint256"
        }
      ],
      "name": "setLiquidityFeePercent",
      "outputs": [],
      "stateMutability": "nonpayable",
      "type": "function"
    },
    {
      "inputs": [
        {
          "internalType": "uint256",
          "name": "percent",
          "type": "uint256"
        }
      ],
      "name": "setMaxTxAmount",
      "outputs": [],
      "stateMutability": "nonpayable",
      "type": "function"
    },
    {
      "inputs": [
        {
          "internalType": "uint256",
          "name": "_minimumTokensBeforeSwap",
          "type": "uint256"
        }
      ],
      "name": "setNumTokensSellToAddToLiquidity",
      "outputs": [],
      "stateMutability": "nonpayable",
      "type": "function"
    },
    {
      "inputs": [
        {
          "internalType": "address",
          "name": "_rewardAddress",
          "type": "address"
        }
      ],
      "name": "setRewardAddress",
      "outputs": [],
      "stateMutability": "nonpayable",
      "type": "function"
    },
    {
      "inputs": [
        {
          "internalType": "uint256",
          "name": "divisor",
          "type": "uint256"
        }
      ],
      "name": "setRewardDivisor",
      "outputs": [],
      "stateMutability": "nonpayable",
      "type": "function"
    },
    {
      "inputs": [
        {
          "internalType": "bool",
          "name": "_enabled",
          "type": "bool"
        }
      ],
      "name": "setSwapAndLiquifyEnabled",
      "outputs": [],
      "stateMutability": "nonpayable",
      "type": "function"
    },
    {
      "inputs": [
        {
          "internalType": "uint256",
          "name": "taxFee",
          "type": "uint256"
        }
      ],
      "name": "setTaxFeePercent",
      "outputs": [],
      "stateMutability": "nonpayable",
      "type": "function"
    },
    {
      "inputs": [],
      "name": "swapAndLiquifyEnabled",
      "outputs": [
        {
          "internalType": "bool",
          "name": "",
          "type": "bool"
        }
      ],
      "stateMutability": "view",
      "type": "function"
    },
    {
      "inputs": [],
      "name": "symbol",
      "outputs": [
        {
          "internalType": "string",
          "name": "",
          "type": "string"
        }
      ],
      "stateMutability": "view",
      "type": "function"
    },
    {
      "inputs": [
        {
          "internalType": "uint256",
          "name": "rAmount",
          "type": "uint256"
        }
      ],
      "name": "tokenFromReflection",
      "outputs": [
        {
          "internalType": "uint256",
          "name": "",
          "type": "uint256"
        }
      ],
      "stateMutability": "view",
      "type": "function"
    },
    {
      "inputs": [],
      "name": "totalFees",
      "outputs": [
        {
          "internalType": "uint256",
          "name": "",
          "type": "uint256"
        }
      ],
      "stateMutability": "view",
      "type": "function"
    },
    {
      "inputs": [],
      "name": "totalSupply",
      "outputs": [
        {
          "internalType": "uint256",
          "name": "",
          "type": "uint256"
        }
      ],
      "stateMutability": "view",
      "type": "function"
    },
    {
      "inputs": [
        {
          "internalType": "address",
          "name": "recipient",
          "type": "address"
        },
        {
          "internalType": "uint256",
          "name": "amount",
          "type": "uint256"
        }
      ],
      "name": "transfer",
      "outputs": [
        {
          "internalType": "bool",
          "name": "",
          "type": "bool"
        }
      ],
      "stateMutability": "nonpayable",
      "type": "function"
    },
    {
      "inputs": [
        {
          "internalType": "address",
          "name": "sender",
          "type": "address"
        },
        {
          "internalType": "address",
          "name": "recipient",
          "type": "address"
        },
        {
          "internalType": "uint256",
          "name": "amount",
          "type": "uint256"
        }
      ],
      "name": "transferFrom",
      "outputs": [
        {
          "internalType": "bool",
          "name": "",
          "type": "bool"
        }
      ],
      "stateMutability": "nonpayable",
      "type": "function"
    },
    {
      "inputs": [
        {
          "internalType": "address",
          "name": "newOwner",
          "type": "address"
        }
      ],
      "name": "transferOwnership",
      "outputs": [],
      "stateMutability": "nonpayable",
      "type": "function"
    },
    {
      "inputs": [],
      "name": "uniswapV2Pair",
      "outputs": [
        {
          "internalType": "address",
          "name": "",
          "type": "address"
        }
      ],
      "stateMutability": "view",
      "type": "function"
    },
    {
      "inputs": [],
      "name": "uniswapV2Router",
      "outputs": [
        {
          "internalType": "contract IUniswapV2Router02",
          "name": "",
          "type": "address"
        }
      ],
      "stateMutability": "view",
      "type": "function"
    },
    {
      "stateMutability": "payable",
      "type": "receive"
    }
  ],
  "transactionHash": "0x753973586b7335fec2bf4c0c5a751df7db243b8da60c8a6139114acf2d30c003",
  "args": [
    "0xfc9F0a69fbCD09163100E94f4F3330A4C6efB2CC"
  ],
  "solcInputHash": "ad3f78638ce95c4668ac7b3ed0888685",
  "bytecode": "0x60e06040526002805473888a5ae84c92814d51da6b18ef8aa1313c0f408b6001600160a01b031991821681179092556003805490911690911790556ddead0000000000000000000000006080526007805460ff60a81b191690556b033b2e3c9fd0803ce8000000600b819055620000799060001962000891565b62000087906000196200083a565b600c55604080518082019091526009808252684c656d6f6e48617a6560b81b6020909201918252620000bc91600e91620006dc565b5060408051808201909152600680825265122636b7b73d60d11b6020909201918252620000ec91600f91620006dc565b506010805460ff191660129081179091556002601181905590819055600a6013819055601455600d6015556005601655601755600760185569d3c21bcecceda10000006019556934f086f3b33b68400000601a55670de0b6b3a7640000601b55601c805461ffff60a81b1916600160b01b179055600019601d553480156200017357600080fd5b506040516200448038038062004480833981016040819052620001969162000782565b600080546001600160a01b031916339081178255604051909182917f8be0079c531659141344cd1fd0a4f28419497f9722a3daafe3b4186f6b6457e0908290a3506000620002106007620001fc600a600c546200049a60201b620022221790919060201c565b620004ed60201b620022641790919060201c565b336000908152600460205260409020819055600c54909150620002359082906200083a565b6001600160a01b03831660009081526004602081815260409283902093909355815163c45a015560e01b81529151739ac64cc6e4415144c455bd8e4837fea55603e5c393849363c45a0155938181019391829003018186803b1580156200029b57600080fd5b505afa158015620002b0573d6000803e3d6000fd5b505050506040513d601f19601f82011682018060405250810190620002d6919062000782565b6001600160a01b031663c9c6539630836001600160a01b031663ad5c46486040518163ffffffff1660e01b815260040160206040518083038186803b1580156200031f57600080fd5b505afa15801562000334573d6000803e3d6000fd5b505050506040513d601f19601f820116820180604052508101906200035a919062000782565b6040516001600160e01b031960e085901b1681526001600160a01b03928316600482015291166024820152604401602060405180830381600087803b158015620003a357600080fd5b505af1158015620003b8573d6000803e3d6000fd5b505050506040513d601f19601f82011682018060405250810190620003de919062000782565b6001600160601b0319606091821b811660c0529082901b1660a052601d546200040b903090839062000578565b60008054601c80546001600160a01b0319166001600160a01b0390921691821790558152600860209081526040808320805460ff19908116600190811790925530855282852080549091169091179055600b5490519081523392917fddf252ad1be2c89b69c2b068fc378daa952ba7f163c4a11628f55a4df523b3ef910160405180910390a3505050620008d4565b6000620004e483836040518060400160405280601a81526020017f536166654d6174683a206469766973696f6e206279207a65726f000000000000815250620006a060201b60201c565b90505b92915050565b600082620004fe57506000620004e7565b60006200050c838562000818565b9050826200051b858362000801565b14620004e45760405162461bcd60e51b815260206004820152602160248201527f536166654d6174683a206d756c7469706c69636174696f6e206f766572666c6f6044820152607760f81b60648201526084015b60405180910390fd5b6001600160a01b038316620005dc5760405162461bcd60e51b8152602060048201526024808201527f45524332303a20617070726f76652066726f6d20746865207a65726f206164646044820152637265737360e01b60648201526084016200056f565b6001600160a01b0382166200063f5760405162461bcd60e51b815260206004820152602260248201527f45524332303a20617070726f766520746f20746865207a65726f206164647265604482015261737360f01b60648201526084016200056f565b6001600160a01b0383811660008181526006602090815260408083209487168084529482529182902085905590518481527f8c5be1e5ebec7d5bd14f71427d1e84f3dd0314c0f7b2291e5b200ac8c7c3b925910160405180910390a3505050565b60008183620006c45760405162461bcd60e51b81526004016200056f9190620007ab565b506000620006d3848662000801565b95945050505050565b828054620006ea9062000854565b90600052602060002090601f0160209004810192826200070e576000855562000759565b82601f106200072957805160ff191683800117855562000759565b8280016001018555821562000759579182015b82811115620007595782518255916020019190600101906200073c565b50620007679291506200076b565b5090565b5b808211156200076757600081556001016200076c565b60006020828403121562000794578081fd5b81516001600160a01b0381168114620004e4578182fd5b6000602080835283518082850152825b81811015620007d957858101830151858201604001528201620007bb565b81811115620007eb5783604083870101525b50601f01601f1916929092016040019392505050565b600082620008135762000813620008be565b500490565b6000816000190483118215151615620008355762000835620008a8565b500290565b6000828210156200084f576200084f620008a8565b500390565b600181811c908216806200086957607f821691505b602082108114156200088b57634e487b7160e01b600052602260045260246000fd5b50919050565b600082620008a357620008a3620008be565b500690565b634e487b7160e01b600052601160045260246000fd5b634e487b7160e01b600052601260045260246000fd5b60805160601c60a05160601c60c05160601c613b346200094c600039600081816107c10152818161268a015281816126ca015261282c0152600081816103cc0152818161054601528181612f570152818161304501528181613153015261328301526000818161060801526132b90152613b346000f3fe6080604052600436106103bc5760003560e01c8063557ed1ba116101f25780638ee88c531161010d578063c818c280116100a0578063f0f165af1161006f578063f0f165af14610be0578063f12d91b014610c00578063f2fde38b14610c16578063f49c87e714610c3657600080fd5b8063c818c28014610b45578063dd62ed3e14610b5a578063ea2f0b3714610ba0578063ec28438a14610bc057600080fd5b8063a457c2d7116100dc578063a457c2d714610ad0578063a9059cbb14610af0578063bdc653ef14610b10578063c49b9a8014610b2557600080fd5b80638ee88c5314610a6657806395d89b4114610a865780639cfdbd5e14610a9b578063a073d37f14610abb57600080fd5b8063715018a61161018557806382d2a4bb1161015457806382d2a4bb146109cf57806388f82020146109ef5780638cf57cb914610a285780638da5cb5b14610a4857600080fd5b8063715018a614610964578063732f01751461097957806376ce16a5146109995780637d1db4a5146109b957600080fd5b8063638b1b14116101c1578063638b1b14146108f95780636bc87c3a146109195780637088fb7f1461092f57806370a082311461094457600080fd5b8063557ed1ba1461087257806356d27a4c146108855780635e00e679146108a55780636053a0e3146108c557600080fd5b80632d838119116102e2578063437823ec116102755780634a74bb02116102445780634a74bb02146107e35780635134f6ab1461080457806352390c02146108195780635342acb41461083957600080fd5b8063437823ec146107595780634549b039146107795780634761bea91461079957806349bd5a5e146107af57600080fd5b80633685d419116102b15780633685d419146106e357806339509351146107035780633b124fe7146107235780633bd5d1731461073957600080fd5b80632d8381191461066a578063313ce5671461068a57806333ced6e2146106ac57806334616805146106c257600080fd5b80631694505e1161035a57806326898da91161032957806326898da9146105d557806327c8f835146105f657806329370cc61461062a57806329b1c15c1461064a57600080fd5b80631694505e1461053457806318160ddd14610580578063206a8a221461059557806323b872dd146105b557600080fd5b8063095ea7b311610396578063095ea7b3146104a557806311389808146104d557806313114a9d146104f55780631632070c1461051457600080fd5b8063061c82d01461044557806306fdde031461046557806307efbfdc1461049057600080fd5b3661044057336001600160a01b037f0000000000000000000000000000000000000000000000000000000000000000161461043e5760405162461bcd60e51b815260206004820152601f60248201527f43616e27742073656e64206469726563746c7920746f20636f6e74726163740060448201526064015b60405180910390fd5b005b600080fd5b34801561045157600080fd5b5061043e610460366004613819565b610c4c565b34801561047157600080fd5b5061047a610d22565b60405161048791906138d4565b60405180910390f35b34801561049c57600080fd5b5061043e610db4565b3480156104b157600080fd5b506104c56104c03660046137d4565b610e32565b6040519015158152602001610487565b3480156104e157600080fd5b5061043e6104f0366004613724565b610e49565b34801561050157600080fd5b50600d545b604051908152602001610487565b34801561052057600080fd5b5061043e61052f366004613819565b610f19565b34801561054057600080fd5b506105687f000000000000000000000000000000000000000000000000000000000000000081565b6040516001600160a01b039091168152602001610487565b34801561058c57600080fd5b50600b54610506565b3480156105a157600080fd5b5061043e6105b03660046137ff565b610f96565b3480156105c157600080fd5b506104c56105d0366004613794565b610ffc565b3480156105e157600080fd5b506007546104c590600160a01b900460ff1681565b34801561060257600080fd5b506105687f000000000000000000000000000000000000000000000000000000000000000081565b34801561063657600080fd5b5061043e6106453660046137ff565b611065565b34801561065657600080fd5b5061043e610665366004613724565b611128565b34801561067657600080fd5b50610506610685366004613819565b6111cb565b34801561069657600080fd5b5060105460405160ff9091168152602001610487565b3480156106b857600080fd5b5061050660155481565b3480156106ce57600080fd5b506007546104c590600160a81b900460ff1681565b3480156106ef57600080fd5b5061043e6106fe366004613724565b611262565b34801561070f57600080fd5b506104c561071e3660046137d4565b611489565b34801561072f57600080fd5b5061050660115481565b34801561074557600080fd5b5061043e610754366004613819565b6114bf565b34801561076557600080fd5b5061043e610774366004613724565b6115ba565b34801561078557600080fd5b50610506610794366004613831565b611626565b3480156107a557600080fd5b5061050660165481565b3480156107bb57600080fd5b506105687f000000000000000000000000000000000000000000000000000000000000000081565b3480156107ef57600080fd5b50601c546104c590600160a81b900460ff1681565b34801561081057600080fd5b5061043e6116b3565b34801561082557600080fd5b5061043e610834366004613724565b611717565b34801561084557600080fd5b506104c5610854366004613724565b6001600160a01b031660009081526008602052604090205460ff1690565b34801561087e57600080fd5b5042610506565b34801561089157600080fd5b5061043e6108a0366004613724565b6118ea565b3480156108b157600080fd5b5061043e6108c0366004613724565b611961565b3480156108d157600080fd5b50601c546104c590760100000000000000000000000000000000000000000000900460ff1681565b34801561090557600080fd5b50600354610568906001600160a01b031681565b34801561092557600080fd5b5061050660135481565b34801561093b57600080fd5b5061043e611a04565b34801561095057600080fd5b5061050661095f366004613724565b611a97565b34801561097057600080fd5b5061043e611af6565b34801561098557600080fd5b5061043e610994366004613819565b611b95565b3480156109a557600080fd5b50601c54610568906001600160a01b031681565b3480156109c557600080fd5b5061050660195481565b3480156109db57600080fd5b5061043e6109ea366004613819565b611c12565b3480156109fb57600080fd5b506104c5610a0a366004613724565b6001600160a01b031660009081526009602052604090205460ff1690565b348015610a3457600080fd5b50600254610568906001600160a01b031681565b348015610a5457600080fd5b506000546001600160a01b0316610568565b348015610a7257600080fd5b5061043e610a81366004613819565b611ca1565b348015610a9257600080fd5b5061047a611d70565b348015610aa757600080fd5b50600754610568906001600160a01b031681565b348015610ac757600080fd5b50601a54610506565b348015610adc57600080fd5b506104c5610aeb3660046137d4565b611d7f565b348015610afc57600080fd5b506104c5610b0b3660046137d4565b611dce565b348015610b1c57600080fd5b50601b54610506565b348015610b3157600080fd5b5061043e610b403660046137ff565b611ddb565b348015610b5157600080fd5b5061043e611e8b565b348015610b6657600080fd5b50610506610b7536600461375c565b6001600160a01b03918216600090815260066020908152604080832093909416825291909152205490565b348015610bac57600080fd5b5061043e610bbb366004613724565b611f1a565b348015610bcc57600080fd5b5061043e610bdb366004613819565b611f83565b348015610bec57600080fd5b5061043e610bfb366004613819565b612079565b348015610c0c57600080fd5b5061050660185481565b348015610c2257600080fd5b5061043e610c31366004613724565b6120f6565b348015610c4257600080fd5b5061050660175481565b6000546001600160a01b03163314610c945760405162461bcd60e51b81526020600482018190526024820152600080516020613aba8339815191526044820152606401610435565b601654811115610ce65760405162461bcd60e51b815260206004820152600f60248201527f6d617820666565206578636565647300000000000000000000000000000000006044820152606401610435565b60118190556040518181527ff9364b31c43785996b20464353ae9f7e7897fe40aec194789ee474fc1f6ff94f906020015b60405180910390a150565b6060600e8054610d3190613a10565b80601f0160208091040260200160405190810160405280929190818152602001828054610d5d90613a10565b8015610daa5780601f10610d7f57610100808354040283529160200191610daa565b820191906000526020600020905b815481529060010190602001808311610d8d57829003601f168201915b5050505050905090565b6000546001600160a01b03163314610dfc5760405162461bcd60e51b81526020600482018190526024820152600080516020613aba8339815191526044820152606401610435565b610e066001611ddb565b6002601155600a6013819055600b54610e2d916103e891610e279190612264565b90612222565b601955565b6000610e3f3384846122ff565b5060015b92915050565b6000546001600160a01b03163314610e915760405162461bcd60e51b81526020600482018190526024820152600080516020613aba8339815191526044820152606401610435565b6007546001600160a01b031615610eea5760405162461bcd60e51b815260206004820152601c60248201527f43616e206f6e6c7920626520696e697469616c697a6564206f6e6365000000006044820152606401610435565b6007805473ffffffffffffffffffffffffffffffffffffffff19166001600160a01b0392909216919091179055565b6000546001600160a01b03163314610f615760405162461bcd60e51b81526020600482018190526024820152600080516020613aba8339815191526044820152606401610435565b60178190556040518181527fb598e4b0c0e2229df4bc42611748ac844eec99eef4c949ea8b8556ccc0f8b85190602001610d17565b6000546001600160a01b03163314610fde5760405162461bcd60e51b81526020600482018190526024820152600080516020613aba8339815191526044820152606401610435565b60078054911515600160a01b0260ff60a01b19909216919091179055565b6000611009848484612458565b61105b843361105685604051806060016040528060288152602001613a92602891396001600160a01b038a1660009081526006602090815260408083203384529091529020549190612936565b6122ff565b5060019392505050565b6000546001600160a01b031633146110ad5760405162461bcd60e51b81526020600482018190526024820152600080516020613aba8339815191526044820152606401610435565b601c8054821515760100000000000000000000000000000000000000000000027fffffffffffffffffff00ffffffffffffffffffffffffffffffffffffffffffff9091161790556040517f3794234fa370c9f3b948dda3e3040530785b2ef1eb27dda3ffde478f4e2643c090610d1790831515815260200190565b6000546001600160a01b031633146111705760405162461bcd60e51b81526020600482018190526024820152600080516020613aba8339815191526044820152606401610435565b6003805473ffffffffffffffffffffffffffffffffffffffff19166001600160a01b0383169081179091556040519081527f7358faaae54e6b58717da17b685c08d01c9a3ffd97b9dc3a1152bc2d87693c5790602001610d17565b6000600c548211156112455760405162461bcd60e51b815260206004820152602a60248201527f416d6f756e74206d757374206265206c657373207468616e20746f74616c207260448201527f65666c656374696f6e73000000000000000000000000000000000000000000006064820152608401610435565b600061124f612970565b905061125b8382612222565b9392505050565b6000546001600160a01b031633146112aa5760405162461bcd60e51b81526020600482018190526024820152600080516020613aba8339815191526044820152606401610435565b6001600160a01b03811660009081526009602052604090205460ff166113125760405162461bcd60e51b815260206004820152601b60248201527f4163636f756e7420697320616c7265616479206578636c7564656400000000006044820152606401610435565b60005b600a5481101561148557816001600160a01b0316600a828154811061134a57634e487b7160e01b600052603260045260246000fd5b6000918252602090912001546001600160a01b0316141561147357600a8054611375906001906139f9565b8154811061139357634e487b7160e01b600052603260045260246000fd5b600091825260209091200154600a80546001600160a01b0390921691839081106113cd57634e487b7160e01b600052603260045260246000fd5b6000918252602080832091909101805473ffffffffffffffffffffffffffffffffffffffff19166001600160a01b039485161790559184168152600582526040808220829055600990925220805460ff19169055600a80548061144057634e487b7160e01b600052603160045260246000fd5b6000828152602090208101600019908101805473ffffffffffffffffffffffffffffffffffffffff191690550190555050565b8061147d81613a4b565b915050611315565b5050565b3360008181526006602090815260408083206001600160a01b03871684529091528120549091610e3f9185906110569086612993565b3360008181526009602052604090205460ff16156115455760405162461bcd60e51b815260206004820152602c60248201527f4578636c75646564206164647265737365732063616e6e6f742063616c6c207460448201527f6869732066756e6374696f6e00000000000000000000000000000000000000006064820152608401610435565b6000611550836129f2565b505050506001600160a01b03841660009081526004602052604090205491925061157c91905082612a41565b6001600160a01b038316600090815260046020526040902055600c546115a29082612a41565b600c55600d546115b29084612993565b600d55505050565b6000546001600160a01b031633146116025760405162461bcd60e51b81526020600482018190526024820152600080516020613aba8339815191526044820152606401610435565b6001600160a01b03166000908152600860205260409020805460ff19166001179055565b6000600b5483111561167a5760405162461bcd60e51b815260206004820152601f60248201527f416d6f756e74206d757374206265206c657373207468616e20737570706c79006044820152606401610435565b8161169957600061168a846129f2565b50939550610e43945050505050565b60006116a4846129f2565b50929550610e43945050505050565b6000546001600160a01b031633146116fb5760405162461bcd60e51b81526020600482018190526024820152600080516020613aba8339815191526044820152606401610435565b6117056000611ddb565b60006011819055601355600b54601955565b6000546001600160a01b0316331461175f5760405162461bcd60e51b81526020600482018190526024820152600080516020613aba8339815191526044820152606401610435565b6001600160a01b03811660009081526009602052604090205460ff16156117c85760405162461bcd60e51b815260206004820152601b60248201527f4163636f756e7420697320616c7265616479206578636c7564656400000000006044820152606401610435565b6001600160a01b03811660009081526004602052604090205415611822576001600160a01b038116600090815260046020526040902054611808906111cb565b6001600160a01b0382166000908152600560205260409020555b6001600160a01b0381166000818152600960205260408120805460ff19166001908117909155600a80549182018155918290527fc65a7bb8d6351c1cf70c95a316cc6a92839c986682d98bc35f958f4883f9d2a801805473ffffffffffffffffffffffffffffffffffffffff191690921790915554601e10156118e75760405162461bcd60e51b815260206004820152601b60248201527f4578636c75646520726577617264206c697374206578636565647300000000006044820152606401610435565b50565b6000546001600160a01b031633146119325760405162461bcd60e51b81526020600482018190526024820152600080516020613aba8339815191526044820152606401610435565b601c805473ffffffffffffffffffffffffffffffffffffffff19166001600160a01b0392909216919091179055565b6000546001600160a01b031633146119a95760405162461bcd60e51b81526020600482018190526024820152600080516020613aba8339815191526044820152606401610435565b6002805473ffffffffffffffffffffffffffffffffffffffff19166001600160a01b0383169081179091556040519081527f74a9fe81925b68b4a6c7a7a36e2865be15c09ef2114ba0bcdf948e2da9ee029690602001610d17565b6000546001600160a01b03163314611a4c5760405162461bcd60e51b81526020600482018190526024820152600080516020613aba8339815191526044820152606401610435565b47611a5f6000546001600160a01b031690565b6001600160a01b03166108fc829081150290604051600060405180830381858888f19350505050158015611485573d6000803e3d6000fd5b6001600160a01b03811660009081526009602052604081205460ff1615611ad457506001600160a01b031660009081526005602052604090205490565b6001600160a01b038216600090815260046020526040902054610e43906111cb565b6000546001600160a01b03163314611b3e5760405162461bcd60e51b81526020600482018190526024820152600080516020613aba8339815191526044820152606401610435565b600080546040516001600160a01b03909116907f8be0079c531659141344cd1fd0a4f28419497f9722a3daafe3b4186f6b6457e0908390a36000805473ffffffffffffffffffffffffffffffffffffffff19169055565b6000546001600160a01b03163314611bdd5760405162461bcd60e51b81526020600482018190526024820152600080516020613aba8339815191526044820152606401610435565b60188190556040518181527f1f222bf55ec7a4e4fb30903e189bc96e3df8cdade88e2121a5041478bd00999090602001610d17565b6000546001600160a01b03163314611c5a5760405162461bcd60e51b81526020600482018190526024820152600080516020613aba8339815191526044820152606401610435565b611c6c81670de0b6b3a76400006139da565b601b8190556040519081527f44108e14866d6c56adc183f05baa27292cfedcac7e3bea756aa6b797db7e548390602001610d17565b6000546001600160a01b03163314611ce95760405162461bcd60e51b81526020600482018190526024820152600080516020613aba8339815191526044820152606401610435565b601554811115611d3b5760405162461bcd60e51b815260206004820152600f60248201527f6d617820666565206578636565647300000000000000000000000000000000006044820152606401610435565b60138190556040518181527f719388fc3a1b723d13dcb4177507af9d05816637ff263302bc01b015f6b5413790602001610d17565b6060600f8054610d3190613a10565b6000610e3f338461105685604051806060016040528060258152602001613ada602591393360009081526006602090815260408083206001600160a01b038d1684529091529020549190612936565b6000610e3f338484612458565b6000546001600160a01b03163314611e235760405162461bcd60e51b81526020600482018190526024820152600080516020613aba8339815191526044820152606401610435565b601c8054821515600160a81b027fffffffffffffffffffff00ffffffffffffffffffffffffffffffffffffffffff9091161790556040517f53726dfcaf90650aa7eb35524f4d3220f07413c8d6cb404cc8c18bf5591bc15990610d1790831515815260200190565b6000546001600160a01b03163314611ed35760405162461bcd60e51b81526020600482018190526024820152600080516020613aba8339815191526044820152606401610435565b600754600160a81b900460ff1615611eea57600080fd5b600780547fffffffffffffffffffff00ffffffffffffffffffffffffffffffffffffffffff16600160a81b179055565b6000546001600160a01b03163314611f625760405162461bcd60e51b81526020600482018190526024820152600080516020613aba8339815191526044820152606401610435565b6001600160a01b03166000908152600860205260409020805460ff19169055565b6000546001600160a01b03163314611fcb5760405162461bcd60e51b81526020600482018190526024820152600080516020613aba8339815191526044820152606401610435565b600081118015611fdd57506103e88111155b6120295760405162461bcd60e51b815260206004820152600e60248201527f696e76616c696420616d6f756e740000000000000000000000000000000000006044820152606401610435565b6120446103e8610e2783600b5461226490919063ffffffff16565b60198190556040519081527ffbe50b83bbe9d2e253bb0d67593a670a3e84cc2cc5735290718cf0ecb6a87e3e90602001610d17565b6000546001600160a01b031633146120c15760405162461bcd60e51b81526020600482018190526024820152600080516020613aba8339815191526044820152606401610435565b601a8190556040518181527f696b762bd40f10fc12f15397af542a8075b7a1b1968e9b80698ce9f5256cea3790602001610d17565b6000546001600160a01b0316331461213e5760405162461bcd60e51b81526020600482018190526024820152600080516020613aba8339815191526044820152606401610435565b6001600160a01b0381166121ba5760405162461bcd60e51b815260206004820152602660248201527f4f776e61626c653a206e6577206f776e657220697320746865207a65726f206160448201527f64647265737300000000000000000000000000000000000000000000000000006064820152608401610435565b600080546040516001600160a01b03808516939216917f8be0079c531659141344cd1fd0a4f28419497f9722a3daafe3b4186f6b6457e091a36000805473ffffffffffffffffffffffffffffffffffffffff19166001600160a01b0392909216919091179055565b600061125b83836040518060400160405280601a81526020017f536166654d6174683a206469766973696f6e206279207a65726f000000000000815250612a83565b60008261227357506000610e43565b600061227f83856139da565b90508261228c85836139ba565b1461125b5760405162461bcd60e51b815260206004820152602160248201527f536166654d6174683a206d756c7469706c69636174696f6e206f766572666c6f60448201527f77000000000000000000000000000000000000000000000000000000000000006064820152608401610435565b6001600160a01b03831661237a5760405162461bcd60e51b8152602060048201526024808201527f45524332303a20617070726f76652066726f6d20746865207a65726f2061646460448201527f72657373000000000000000000000000000000000000000000000000000000006064820152608401610435565b6001600160a01b0382166123f65760405162461bcd60e51b815260206004820152602260248201527f45524332303a20617070726f766520746f20746865207a65726f20616464726560448201527f73730000000000000000000000000000000000000000000000000000000000006064820152608401610435565b6001600160a01b0383811660008181526006602090815260408083209487168084529482529182902085905590518481527f8c5be1e5ebec7d5bd14f71427d1e84f3dd0314c0f7b2291e5b200ac8c7c3b92591015b60405180910390a3505050565b6001600160a01b0383166124d45760405162461bcd60e51b815260206004820152602560248201527f45524332303a207472616e736665722066726f6d20746865207a65726f20616460448201527f64726573730000000000000000000000000000000000000000000000000000006064820152608401610435565b6001600160a01b0382166125505760405162461bcd60e51b815260206004820152602360248201527f45524332303a207472616e7366657220746f20746865207a65726f206164647260448201527f65737300000000000000000000000000000000000000000000000000000000006064820152608401610435565b600081116125c65760405162461bcd60e51b815260206004820152602960248201527f5472616e7366657220616d6f756e74206d75737420626520677265617465722060448201527f7468616e207a65726f00000000000000000000000000000000000000000000006064820152608401610435565b6000546001600160a01b038481169116148015906125f257506000546001600160a01b03838116911614155b1561266f5760195481111561266f5760405162461bcd60e51b815260206004820152602860248201527f5472616e7366657220616d6f756e74206578636565647320746865206d61785460448201527f78416d6f756e742e0000000000000000000000000000000000000000000000006064820152608401610435565b601c546001600160a01b038481169116148015906126be57507f00000000000000000000000000000000000000000000000000000000000000006001600160a01b0316826001600160a01b0316145b1561273b5760006126ee7f0000000000000000000000000000000000000000000000000000000000000000611a97565b1161273b5760405162461bcd60e51b815260206004820152600d60248201527f4e6f205065726d697373696f6e000000000000000000000000000000000000006044820152606401610435565b600754600160a01b900460ff16801561275e5750600754600160a81b900460ff16155b156127eb576007546040517f7e2f3afd0000000000000000000000000000000000000000000000000000000081526001600160a01b03858116600483015284811660248301526044820184905290911690637e2f3afd90606401600060405180830381600087803b1580156127d257600080fd5b505af11580156127e6573d6000803e3d6000fd5b505050505b60006127f630611a97565b601a54601c5491925082101590600160a01b900460ff161580156128235750601c54600160a81b900460ff165b801561286057507f00000000000000000000000000000000000000000000000000000000000000006001600160a01b0316846001600160a01b0316145b156128d757801561287957601a54915061287982612ab1565b601c544790760100000000000000000000000000000000000000000000900460ff1680156128ae5750670de0b6b3a764000081115b156128d557601b548111156128c25750601b545b6128d56128d0826064612222565b612b49565b505b6001600160a01b03851660009081526008602052604090205460019060ff168061291957506001600160a01b03851660009081526008602052604090205460ff165b15612922575060005b61292e86868684612b7b565b505050505050565b6000818484111561295a5760405162461bcd60e51b815260040161043591906138d4565b50600061296784866139f9565b95945050505050565b600080600061297d612ca6565b909250905061298c8282612222565b9250505090565b6000806129a083856139a2565b90508381101561125b5760405162461bcd60e51b815260206004820152601b60248201527f536166654d6174683a206164646974696f6e206f766572666c6f7700000000006044820152606401610435565b6000806000806000806000806000612a098a612e60565b9250925092506000806000612a278d8686612a22612970565b612ea2565b919f909e50909c50959a5093985091965092945050505050565b600061125b83836040518060400160405280601e81526020017f536166654d6174683a207375627472616374696f6e206f766572666c6f770000815250612936565b60008183612aa45760405162461bcd60e51b815260040161043591906138d4565b50600061296784866139ba565b601c805460ff60a01b1916600160a01b17905547612ace82612ef2565b6000612ada4783612a41565b600254601754601354929350612b11926001600160a01b0390921691612b0c9190612b06908690612222565b90612264565b6130f5565b600354601854601354612b37926001600160a01b031691612b0c91612b06908690612222565b5050601c805460ff60a01b1916905550565b601c805460ff60a01b1916600160a01b1790558015612b6b57612b6b81613130565b50601c805460ff60a01b19169055565b80612b8857612b88613347565b6001600160a01b03841660009081526009602052604090205460ff168015612bc957506001600160a01b03831660009081526009602052604090205460ff16155b15612bde57612bd9848484613375565b612c8a565b6001600160a01b03841660009081526009602052604090205460ff16158015612c1f57506001600160a01b03831660009081526009602052604090205460ff165b15612c2f57612bd984848461349b565b6001600160a01b03841660009081526009602052604090205460ff168015612c6f57506001600160a01b03831660009081526009602052604090205460ff165b15612c7f57612bd9848484613544565b612c8a8484846135b7565b80612ca057612ca0601254601155601454601355565b50505050565b600c54600b546000918291825b600a54811015612e30578260046000600a8481548110612ce357634e487b7160e01b600052603260045260246000fd5b60009182526020808320909101546001600160a01b031683528201929092526040019020541180612d5c57508160056000600a8481548110612d3557634e487b7160e01b600052603260045260246000fd5b60009182526020808320909101546001600160a01b03168352820192909252604001902054115b15612d7257600c54600b54945094505050509091565b612dc660046000600a8481548110612d9a57634e487b7160e01b600052603260045260246000fd5b60009182526020808320909101546001600160a01b031683528201929092526040019020548490612a41565b9250612e1c60056000600a8481548110612df057634e487b7160e01b600052603260045260246000fd5b60009182526020808320909101546001600160a01b031683528201929092526040019020548390612a41565b915080612e2881613a4b565b915050612cb3565b50600b54600c54612e4091612222565b821015612e5757600c54600b549350935050509091565b90939092509050565b600080600080612e6f856135fb565b90506000612e7c86613617565b90506000612e9482612e8e8986612a41565b90612a41565b979296509094509092505050565b6000808080612eb18886612264565b90506000612ebf8887612264565b90506000612ecd8888612264565b90506000612edf82612e8e8686612a41565b939b939a50919850919650505050505050565b6040805160028082526060820183526000926020830190803683370190505090503081600081518110612f3557634e487b7160e01b600052603260045260246000fd5b60200260200101906001600160a01b031690816001600160a01b0316815250507f00000000000000000000000000000000000000000000000000000000000000006001600160a01b031663ad5c46486040518163ffffffff1660e01b815260040160206040518083038186803b158015612fae57600080fd5b505afa158015612fc2573d6000803e3d6000fd5b505050506040513d601f19601f82011682018060405250810190612fe69190613740565b8160018151811061300757634e487b7160e01b600052603260045260246000fd5b6001600160a01b0392831660209182029290920101526040517f791ac9470000000000000000000000000000000000000000000000000000000081527f00000000000000000000000000000000000000000000000000000000000000009091169063791ac94790613085908590600090869030904290600401613966565b600060405180830381600087803b15801561309f57600080fd5b505af19250505080156130b0575060015b6130b8575050565b7f32cde87eb454f3a0b875ab23547023107cfad454363ec88ba5695e2c24aa52a782826040516130e9929190613945565b60405180910390a15050565b6040516001600160a01b0383169082156108fc029083906000818181858888f1935050505015801561312b573d6000803e3d6000fd5b505050565b6040805160028082526060820183526000926020830190803683370190505090507f00000000000000000000000000000000000000000000000000000000000000006001600160a01b031663ad5c46486040518163ffffffff1660e01b815260040160206040518083038186803b1580156131aa57600080fd5b505afa1580156131be573d6000803e3d6000fd5b505050506040513d601f19601f820116820180604052508101906131e29190613740565b8160008151811061320357634e487b7160e01b600052603260045260246000fd5b60200260200101906001600160a01b031690816001600160a01b031681525050308160018151811061324557634e487b7160e01b600052603260045260246000fd5b6001600160a01b0392831660209182029290920101526040517fb6f9de950000000000000000000000000000000000000000000000000000000081527f00000000000000000000000000000000000000000000000000000000000000009091169063b6f9de959084906132e39060009086907f000000000000000000000000000000000000000000000000000000000000000090429060040161389f565b6000604051808303818588803b1580156132fc57600080fd5b505af19350505050801561330e575060015b613316575050565b7f6fd378a9d8b7345c2e5b18229aaf1e39d32b177b501d0a0d26a0a858a23a962482826040516130e9929190613945565b6011541580156133575750601354155b1561335e57565b601180546012556013805460145560009182905555565b600080600080600080613387876129f2565b6001600160a01b038f16600090815260056020526040902054959b509399509197509550935091506133b99088612a41565b6001600160a01b038a166000908152600560209081526040808320939093556004905220546133e89087612a41565b6001600160a01b03808b1660009081526004602052604080822093909355908a16815220546134179086612993565b6001600160a01b03891660009081526004602052604090205561343981613633565b61344384836136eb565b876001600160a01b0316896001600160a01b03167fddf252ad1be2c89b69c2b068fc378daa952ba7f163c4a11628f55a4df523b3ef8560405161348891815260200190565b60405180910390a3505050505050505050565b6000806000806000806134ad876129f2565b6001600160a01b038f16600090815260046020526040902054959b509399509197509550935091506134df9087612a41565b6001600160a01b03808b16600090815260046020908152604080832094909455918b168152600590915220546135159084612993565b6001600160a01b0389166000908152600560209081526040808320939093556004905220546134179086612993565b600080600080600080613556876129f2565b6001600160a01b038f16600090815260056020526040902054959b509399509197509550935091506135889088612a41565b6001600160a01b038a166000908152600560209081526040808320939093556004905220546134df9087612a41565b6000806000806000806135c9876129f2565b6001600160a01b038f16600090815260046020526040902054959b509399509197509550935091506133e89087612a41565b6000610e436064610e276011548561226490919063ffffffff16565b6000610e436064610e276013548561226490919063ffffffff16565b600061363d612970565b9050600061364b8383612264565b306000908152600460205260409020549091506136689082612993565b3060009081526004602090815260408083209390935560099052205460ff16156136b757306000908152600560205260409020546136a69084612993565b306000908152600560205260409020555b604051838152309033907fddf252ad1be2c89b69c2b068fc378daa952ba7f163c4a11628f55a4df523b3ef9060200161244b565b600c546136f89083612a41565b600c55600d546137089082612993565b600d555050565b8035801515811461371f57600080fd5b919050565b600060208284031215613735578081fd5b813561125b81613a7c565b600060208284031215613751578081fd5b815161125b81613a7c565b6000806040838503121561376e578081fd5b823561377981613a7c565b9150602083013561378981613a7c565b809150509250929050565b6000806000606084860312156137a8578081fd5b83356137b381613a7c565b925060208401356137c381613a7c565b929592945050506040919091013590565b600080604083850312156137e6578182fd5b82356137f181613a7c565b946020939093013593505050565b600060208284031215613810578081fd5b61125b8261370f565b60006020828403121561382a578081fd5b5035919050565b60008060408385031215613843578182fd5b823591506138536020840161370f565b90509250929050565b6000815180845260208085019450808401835b838110156138945781516001600160a01b03168752958201959082019060010161386f565b509495945050505050565b8481526080602082015260006138b8608083018661385c565b6001600160a01b03949094166040830152506060015292915050565b6000602080835283518082850152825b81811015613900578581018301518582016040015282016138e4565b818111156139115783604083870101525b50601f017fffffffffffffffffffffffffffffffffffffffffffffffffffffffffffffffe016929092016040019392505050565b82815260406020820152600061395e604083018461385c565b949350505050565b85815284602082015260a06040820152600061398560a083018661385c565b6001600160a01b0394909416606083015250608001529392505050565b600082198211156139b5576139b5613a66565b500190565b6000826139d557634e487b7160e01b81526012600452602481fd5b500490565b60008160001904831182151516156139f4576139f4613a66565b500290565b600082821015613a0b57613a0b613a66565b500390565b600181811c90821680613a2457607f821691505b60208210811415613a4557634e487b7160e01b600052602260045260246000fd5b50919050565b6000600019821415613a5f57613a5f613a66565b5060010190565b634e487b7160e01b600052601160045260246000fd5b6001600160a01b03811681146118e757600080fdfe45524332303a207472616e7366657220616d6f756e74206578636565647320616c6c6f77616e63654f776e61626c653a2063616c6c6572206973206e6f7420746865206f776e657245524332303a2064656372656173656420616c6c6f77616e63652062656c6f77207a65726fa2646970667358221220499b3ed0f2d0c2c81e710916efc3f21d1c85fe46bba62ada5b0260e33a4d84a564736f6c63430008040033",
  "devdoc": {
    "kind": "dev",
    "methods": {},
    "version": 1
  },
  "userdoc": {
    "kind": "user",
    "methods": {},
    "version": 1
  },
  "storageLayout": {
    "storage": [
      {
        "astId": 476,
        "contract": "contracts/LemonHaze.sol:LemonHaze",
        "label": "_owner",
        "offset": 0,
        "slot": "0",
        "type": "t_address"
      },
      {
        "astId": 478,
        "contract": "contracts/LemonHaze.sol:LemonHaze",
        "label": "_previousOwner",
        "offset": 0,
        "slot": "1",
        "type": "t_address"
      },
      {
        "astId": 1288,
        "contract": "contracts/LemonHaze.sol:LemonHaze",
        "label": "rewardAddress",
        "offset": 0,
        "slot": "2",
        "type": "t_address_payable"
      },
      {
        "astId": 1294,
        "contract": "contracts/LemonHaze.sol:LemonHaze",
        "label": "developmentAddress",
        "offset": 0,
        "slot": "3",
        "type": "t_address_payable"
      },
      {
        "astId": 1301,
        "contract": "contracts/LemonHaze.sol:LemonHaze",
        "label": "_rOwned",
        "offset": 0,
        "slot": "4",
        "type": "t_mapping(t_address,t_uint256)"
      },
      {
        "astId": 1305,
        "contract": "contracts/LemonHaze.sol:LemonHaze",
        "label": "_tOwned",
        "offset": 0,
        "slot": "5",
        "type": "t_mapping(t_address,t_uint256)"
      },
      {
        "astId": 1311,
        "contract": "contracts/LemonHaze.sol:LemonHaze",
        "label": "_allowances",
        "offset": 0,
        "slot": "6",
        "type": "t_mapping(t_address,t_mapping(t_address,t_uint256))"
      },
      {
        "astId": 1314,
        "contract": "contracts/LemonHaze.sol:LemonHaze",
        "label": "BP",
        "offset": 0,
        "slot": "7",
        "type": "t_contract(BPContract)1270"
      },
      {
        "astId": 1316,
        "contract": "contracts/LemonHaze.sol:LemonHaze",
        "label": "bpEnabled",
        "offset": 20,
        "slot": "7",
        "type": "t_bool"
      },
      {
        "astId": 1319,
        "contract": "contracts/LemonHaze.sol:LemonHaze",
        "label": "BPDisabledForever",
        "offset": 21,
        "slot": "7",
        "type": "t_bool"
      },
      {
        "astId": 1323,
        "contract": "contracts/LemonHaze.sol:LemonHaze",
        "label": "_isExcludedFromFee",
        "offset": 0,
        "slot": "8",
        "type": "t_mapping(t_address,t_bool)"
      },
      {
        "astId": 1327,
        "contract": "contracts/LemonHaze.sol:LemonHaze",
        "label": "_isExcluded",
        "offset": 0,
        "slot": "9",
        "type": "t_mapping(t_address,t_bool)"
      },
      {
        "astId": 1330,
        "contract": "contracts/LemonHaze.sol:LemonHaze",
        "label": "_excluded",
        "offset": 0,
        "slot": "10",
        "type": "t_array(t_address)dyn_storage"
      },
      {
        "astId": 1344,
        "contract": "contracts/LemonHaze.sol:LemonHaze",
        "label": "_tTotal",
        "offset": 0,
        "slot": "11",
        "type": "t_uint256"
      },
      {
        "astId": 1353,
        "contract": "contracts/LemonHaze.sol:LemonHaze",
        "label": "_rTotal",
        "offset": 0,
        "slot": "12",
        "type": "t_uint256"
      },
      {
        "astId": 1355,
        "contract": "contracts/LemonHaze.sol:LemonHaze",
        "label": "_tFeeTotal",
        "offset": 0,
        "slot": "13",
        "type": "t_uint256"
      },
      {
        "astId": 1358,
        "contract": "contracts/LemonHaze.sol:LemonHaze",
        "label": "_name",
        "offset": 0,
        "slot": "14",
        "type": "t_string_storage"
      },
      {
        "astId": 1361,
        "contract": "contracts/LemonHaze.sol:LemonHaze",
        "label": "_symbol",
        "offset": 0,
        "slot": "15",
        "type": "t_string_storage"
      },
      {
        "astId": 1364,
        "contract": "contracts/LemonHaze.sol:LemonHaze",
        "label": "_decimals",
        "offset": 0,
        "slot": "16",
        "type": "t_uint8"
      },
      {
        "astId": 1367,
        "contract": "contracts/LemonHaze.sol:LemonHaze",
        "label": "_taxFee",
        "offset": 0,
        "slot": "17",
        "type": "t_uint256"
      },
      {
        "astId": 1370,
        "contract": "contracts/LemonHaze.sol:LemonHaze",
        "label": "_previousTaxFee",
        "offset": 0,
        "slot": "18",
        "type": "t_uint256"
      },
      {
        "astId": 1373,
        "contract": "contracts/LemonHaze.sol:LemonHaze",
        "label": "_liquidityFee",
        "offset": 0,
        "slot": "19",
        "type": "t_uint256"
      },
      {
        "astId": 1376,
        "contract": "contracts/LemonHaze.sol:LemonHaze",
        "label": "_previousLiquidityFee",
        "offset": 0,
        "slot": "20",
        "type": "t_uint256"
      },
      {
        "astId": 1415,
        "contract": "contracts/LemonHaze.sol:LemonHaze",
        "label": "MAX_LIQUIDITY_FEE",
        "offset": 0,
        "slot": "21",
        "type": "t_uint256"
      },
      {
        "astId": 1418,
        "contract": "contracts/LemonHaze.sol:LemonHaze",
        "label": "MAX_TAX_FEE",
        "offset": 0,
        "slot": "22",
        "type": "t_uint256"
      },
      {
        "astId": 1421,
        "contract": "contracts/LemonHaze.sol:LemonHaze",
        "label": "rewardDivisor",
        "offset": 0,
        "slot": "23",
        "type": "t_uint256"
      },
      {
        "astId": 1424,
        "contract": "contracts/LemonHaze.sol:LemonHaze",
        "label": "developmentDivisor",
        "offset": 0,
        "slot": "24",
        "type": "t_uint256"
      },
      {
        "astId": 1431,
        "contract": "contracts/LemonHaze.sol:LemonHaze",
        "label": "_maxTxAmount",
        "offset": 0,
        "slot": "25",
        "type": "t_uint256"
      },
      {
        "astId": 1438,
        "contract": "contracts/LemonHaze.sol:LemonHaze",
        "label": "minimumTokensBeforeSwap",
        "offset": 0,
        "slot": "26",
        "type": "t_uint256"
      },
      {
        "astId": 1445,
        "contract": "contracts/LemonHaze.sol:LemonHaze",
        "label": "buyBackUpperLimit",
        "offset": 0,
        "slot": "27",
        "type": "t_uint256"
      },
      {
        "astId": 1447,
        "contract": "contracts/LemonHaze.sol:LemonHaze",
        "label": "_enabledAddLiquidityAddress",
        "offset": 0,
        "slot": "28",
        "type": "t_address"
      },
      {
        "astId": 1454,
        "contract": "contracts/LemonHaze.sol:LemonHaze",
        "label": "inSwapAndLiquify",
        "offset": 20,
        "slot": "28",
        "type": "t_bool"
      },
      {
        "astId": 1457,
        "contract": "contracts/LemonHaze.sol:LemonHaze",
        "label": "swapAndLiquifyEnabled",
        "offset": 21,
        "slot": "28",
        "type": "t_bool"
      },
      {
        "astId": 1460,
        "contract": "contracts/LemonHaze.sol:LemonHaze",
        "label": "buyBackEnabled",
        "offset": 22,
        "slot": "28",
        "type": "t_bool"
      },
      {
        "astId": 1463,
        "contract": "contracts/LemonHaze.sol:LemonHaze",
        "label": "MAX_INT",
        "offset": 0,
        "slot": "29",
        "type": "t_uint256"
      }
    ],
    "types": {
      "t_address": {
        "encoding": "inplace",
        "label": "address",
        "numberOfBytes": "20"
      },
      "t_address_payable": {
        "encoding": "inplace",
        "label": "address payable",
        "numberOfBytes": "20"
      },
      "t_array(t_address)dyn_storage": {
        "base": "t_address",
        "encoding": "dynamic_array",
        "label": "address[]",
        "numberOfBytes": "32"
      },
      "t_bool": {
        "encoding": "inplace",
        "label": "bool",
        "numberOfBytes": "1"
      },
      "t_contract(BPContract)1270": {
        "encoding": "inplace",
        "label": "contract BPContract",
        "numberOfBytes": "20"
      },
      "t_mapping(t_address,t_bool)": {
        "encoding": "mapping",
        "key": "t_address",
        "label": "mapping(address => bool)",
        "numberOfBytes": "32",
        "value": "t_bool"
      },
      "t_mapping(t_address,t_mapping(t_address,t_uint256))": {
        "encoding": "mapping",
        "key": "t_address",
        "label": "mapping(address => mapping(address => uint256))",
        "numberOfBytes": "32",
        "value": "t_mapping(t_address,t_uint256)"
      },
      "t_mapping(t_address,t_uint256)": {
        "encoding": "mapping",
        "key": "t_address",
        "label": "mapping(address => uint256)",
        "numberOfBytes": "32",
        "value": "t_uint256"
      },
      "t_string_storage": {
        "encoding": "bytes",
        "label": "string",
        "numberOfBytes": "32"
      },
      "t_uint256": {
        "encoding": "inplace",
        "label": "uint256",
        "numberOfBytes": "32"
      },
      "t_uint8": {
        "encoding": "inplace",
        "label": "uint8",
        "numberOfBytes": "1"
      }
    }
  }
}