{
  "address": "0x037fcC914697fA3616463D9514e9824e7772aB30",
  "abi": [
    {
      "anonymous": false,
      "inputs": [
        {
          "indexed": false,
          "internalType": "address",
          "name": "previousAdmin",
          "type": "address"
        },
        {
          "indexed": false,
          "internalType": "address",
          "name": "newAdmin",
          "type": "address"
        }
      ],
      "name": "AdminChanged",
      "type": "event"
    },
    {
      "anonymous": false,
      "inputs": [
        {
          "indexed": true,
          "internalType": "address",
          "name": "beacon",
          "type": "address"
        }
      ],
      "name": "BeaconUpgraded",
      "type": "event"
    },
    {
      "anonymous": false,
      "inputs": [
        {
          "indexed": false,
          "internalType": "contract IGoldenTreePool",
          "name": "oldPool",
          "type": "address"
        },
        {
          "indexed": false,
          "internalType": "contract IGoldenTreePool",
          "name": "newPool",
          "type": "address"
        }
      ],
      "name": "NewGoldenTreePool",
      "type": "event"
    },
    {
      "anonymous": false,
      "inputs": [
        {
          "indexed": false,
          "internalType": "contract ISmartAchievement",
          "name": "oldAchievement",
          "type": "address"
        },
        {
          "indexed": false,
          "internalType": "contract ISmartAchievement",
          "name": "newAchievement",
          "type": "address"
        }
      ],
      "name": "NewSmartAchievement",
      "type": "event"
    },
    {
      "anonymous": false,
      "inputs": [
        {
          "indexed": false,
          "internalType": "contract ISmartArmy",
          "name": "oldSmartArmy",
          "type": "address"
        },
        {
          "indexed": false,
          "internalType": "contract ISmartArmy",
          "name": "newSmartArmy",
          "type": "address"
        }
      ],
      "name": "NewSmartArmy",
      "type": "event"
    },
    {
      "anonymous": false,
      "inputs": [
        {
          "indexed": false,
          "internalType": "contract ISmartFarm",
          "name": "oldSmartFarm",
          "type": "address"
        },
        {
          "indexed": false,
          "internalType": "contract ISmartFarm",
          "name": "newSmartFarm",
          "type": "address"
        }
      ],
      "name": "NewSmartFarm",
      "type": "event"
    },
    {
      "anonymous": false,
      "inputs": [
        {
          "indexed": false,
          "internalType": "contract ISmartLadder",
          "name": "oldSmartLadder",
          "type": "address"
        },
        {
          "indexed": false,
          "internalType": "contract ISmartLadder",
          "name": "newSmartLadder",
          "type": "address"
        }
      ],
      "name": "NewSmartLadder",
      "type": "event"
    },
    {
      "anonymous": false,
      "inputs": [
        {
          "indexed": true,
          "internalType": "address",
          "name": "previousOwner",
          "type": "address"
        },
        {
          "indexed": true,
          "internalType": "address",
          "name": "newOwner",
          "type": "address"
        }
      ],
      "name": "OwnershipTransferred",
      "type": "event"
    },
    {
      "anonymous": false,
      "inputs": [
        {
          "indexed": true,
          "internalType": "address",
          "name": "implementation",
          "type": "address"
        }
      ],
      "name": "Upgraded",
      "type": "event"
    },
    {
      "inputs": [],
      "name": "busdToken",
      "outputs": [
        {
          "internalType": "contract IERC20",
          "name": "",
          "type": "address"
        }
      ],
      "stateMutability": "view",
      "type": "function"
    },
    {
      "inputs": [],
      "name": "getBUSD",
      "outputs": [
        {
          "internalType": "contract IERC20",
          "name": "",
          "type": "address"
        }
      ],
      "stateMutability": "view",
      "type": "function"
    },
    {
      "inputs": [],
      "name": "getGoldenTreePool",
      "outputs": [
        {
          "internalType": "contract IGoldenTreePool",
          "name": "",
          "type": "address"
        }
      ],
      "stateMutability": "view",
      "type": "function"
    },
    {
      "inputs": [],
      "name": "getSMT",
      "outputs": [
        {
          "internalType": "contract IERC20",
          "name": "",
          "type": "address"
        }
      ],
      "stateMutability": "view",
      "type": "function"
    },
    {
      "inputs": [],
      "name": "getSmartAchievement",
      "outputs": [
        {
          "internalType": "contract ISmartAchievement",
          "name": "",
          "type": "address"
        }
      ],
      "stateMutability": "view",
      "type": "function"
    },
    {
      "inputs": [],
      "name": "getSmartArmy",
      "outputs": [
        {
          "internalType": "contract ISmartArmy",
          "name": "",
          "type": "address"
        }
      ],
      "stateMutability": "view",
      "type": "function"
    },
    {
      "inputs": [],
      "name": "getSmartFarm",
      "outputs": [
        {
          "internalType": "contract ISmartFarm",
          "name": "",
          "type": "address"
        }
      ],
      "stateMutability": "view",
      "type": "function"
    },
    {
      "inputs": [],
      "name": "getSmartLadder",
      "outputs": [
        {
          "internalType": "contract ISmartLadder",
          "name": "",
          "type": "address"
        }
      ],
      "stateMutability": "view",
      "type": "function"
    },
    {
      "inputs": [],
      "name": "getUniswapV2Factory",
      "outputs": [
        {
          "internalType": "address",
          "name": "",
          "type": "address"
        }
      ],
      "stateMutability": "view",
      "type": "function"
    },
    {
      "inputs": [],
      "name": "getUniswapV2Router",
      "outputs": [
        {
          "internalType": "contract IUniswapV2Router02",
          "name": "",
          "type": "address"
        }
      ],
      "stateMutability": "view",
      "type": "function"
    },
    {
      "inputs": [],
      "name": "getWBNB",
      "outputs": [
        {
          "internalType": "contract IERC20",
          "name": "",
          "type": "address"
        }
      ],
      "stateMutability": "view",
      "type": "function"
    },
    {
      "inputs": [],
      "name": "goldenTreePool",
      "outputs": [
        {
          "internalType": "contract IGoldenTreePool",
          "name": "",
          "type": "address"
        }
      ],
      "stateMutability": "view",
      "type": "function"
    },
    {
      "inputs": [],
      "name": "initialize",
      "outputs": [],
      "stateMutability": "nonpayable",
      "type": "function"
    },
    {
      "inputs": [],
      "name": "isComptroller",
      "outputs": [
        {
          "internalType": "bool",
          "name": "",
          "type": "bool"
        }
      ],
      "stateMutability": "pure",
      "type": "function"
    },
    {
      "inputs": [],
      "name": "owner",
      "outputs": [
        {
          "internalType": "address",
          "name": "",
          "type": "address"
        }
      ],
      "stateMutability": "view",
      "type": "function"
    },
    {
      "inputs": [],
      "name": "proxiableUUID",
      "outputs": [
        {
          "internalType": "bytes32",
          "name": "",
          "type": "bytes32"
        }
      ],
      "stateMutability": "view",
      "type": "function"
    },
    {
      "inputs": [],
      "name": "renounceOwnership",
      "outputs": [],
      "stateMutability": "nonpayable",
      "type": "function"
    },
    {
      "inputs": [
        {
          "internalType": "address",
          "name": "_address",
          "type": "address"
        }
      ],
      "name": "setBUSD",
      "outputs": [],
      "stateMutability": "nonpayable",
      "type": "function"
    },
    {
      "inputs": [
        {
          "internalType": "address",
          "name": "_address",
          "type": "address"
        }
      ],
      "name": "setGoldenTreePool",
      "outputs": [],
      "stateMutability": "nonpayable",
      "type": "function"
    },
    {
      "inputs": [
        {
          "internalType": "address",
          "name": "_address",
          "type": "address"
        }
      ],
      "name": "setSMT",
      "outputs": [],
      "stateMutability": "nonpayable",
      "type": "function"
    },
    {
      "inputs": [
        {
          "internalType": "address",
          "name": "_address",
          "type": "address"
        }
      ],
      "name": "setSmartAchievement",
      "outputs": [],
      "stateMutability": "nonpayable",
      "type": "function"
    },
    {
      "inputs": [
        {
          "internalType": "address",
          "name": "_address",
          "type": "address"
        }
      ],
      "name": "setSmartArmy",
      "outputs": [],
      "stateMutability": "nonpayable",
      "type": "function"
    },
    {
      "inputs": [
        {
          "internalType": "address",
          "name": "_address",
          "type": "address"
        }
      ],
      "name": "setSmartFarm",
      "outputs": [],
      "stateMutability": "nonpayable",
      "type": "function"
    },
    {
      "inputs": [
        {
          "internalType": "address",
          "name": "_address",
          "type": "address"
        }
      ],
      "name": "setSmartLadder",
      "outputs": [],
      "stateMutability": "nonpayable",
      "type": "function"
    },
    {
      "inputs": [
        {
          "internalType": "address",
          "name": "_address",
          "type": "address"
        }
      ],
      "name": "setUniswapRouter",
      "outputs": [],
      "stateMutability": "nonpayable",
      "type": "function"
    },
    {
      "inputs": [],
      "name": "smartAchievement",
      "outputs": [
        {
          "internalType": "contract ISmartAchievement",
          "name": "",
          "type": "address"
        }
      ],
      "stateMutability": "view",
      "type": "function"
    },
    {
      "inputs": [],
      "name": "smartArmy",
      "outputs": [
        {
          "internalType": "contract ISmartArmy",
          "name": "",
          "type": "address"
        }
      ],
      "stateMutability": "view",
      "type": "function"
    },
    {
      "inputs": [],
      "name": "smartFarm",
      "outputs": [
        {
          "internalType": "contract ISmartFarm",
          "name": "",
          "type": "address"
        }
      ],
      "stateMutability": "view",
      "type": "function"
    },
    {
      "inputs": [],
      "name": "smartLadder",
      "outputs": [
        {
          "internalType": "contract ISmartLadder",
          "name": "",
          "type": "address"
        }
      ],
      "stateMutability": "view",
      "type": "function"
    },
    {
      "inputs": [],
      "name": "smtToken",
      "outputs": [
        {
          "internalType": "contract IERC20",
          "name": "",
          "type": "address"
        }
      ],
      "stateMutability": "view",
      "type": "function"
    },
    {
      "inputs": [
        {
          "internalType": "address",
          "name": "newOwner",
          "type": "address"
        }
      ],
      "name": "transferOwnership",
      "outputs": [],
      "stateMutability": "nonpayable",
      "type": "function"
    },
    {
      "inputs": [],
      "name": "uniswapV2Router",
      "outputs": [
        {
          "internalType": "contract IUniswapV2Router02",
          "name": "",
          "type": "address"
        }
      ],
      "stateMutability": "view",
      "type": "function"
    },
    {
      "inputs": [
        {
          "internalType": "address",
          "name": "newImplementation",
          "type": "address"
        }
      ],
      "name": "upgradeTo",
      "outputs": [],
      "stateMutability": "nonpayable",
      "type": "function"
    },
    {
      "inputs": [
        {
          "internalType": "address",
          "name": "newImplementation",
          "type": "address"
        },
        {
          "internalType": "bytes",
          "name": "data",
          "type": "bytes"
        }
      ],
      "name": "upgradeToAndCall",
      "outputs": [],
      "stateMutability": "payable",
      "type": "function"
    }
  ],
  "transactionHash": "0x6b7aa29d929efbf43f11d7c076488576ea8026b3b08dd4e9cf4208c4fb83b266",
  "args": [],
  "solcInputHash": "4f3d496aad5f041245e369b5dfba6406",
  "bytecode": "0x60a06040523060601b60805234801561001757600080fd5b5060805160601c611b506100526000396000818161097601528181610a0c01528181610c7c01528181610d120152610e0d0152611b506000f3fe6080604052600436106102175760003560e01c80636ac3861a1161011d57806399bd7d8f116100b0578063dc627a981161007f578063de0e701411610064578063de0e7014146105cb578063ec87185d146105eb578063f2fde38b1461060b57600080fd5b8063dc627a981461058d578063dd445c31146105ad57600080fd5b806399bd7d8f1461050f578063bdbfceca1461052d578063bea9849e1461054d578063c3adf9f91461056d57600080fd5b80638129fc1c116100ec5780638129fc1c1461049e5780638da5cb5b146104b357806391a95b25146104d15780639805f01b146104ef57600080fd5b80636ac3861a146104365780636e0d07531461044b578063715018a6146104695780637d627d4c1461047e57600080fd5b80632c50b40d116101b05780634654b7a81161017f5780634f1ef286116101645780634f1ef286146103e257806352d1902d146103f5578063564bde3f1461041857600080fd5b80634654b7a8146103a25780634b3b9cb4146103c257600080fd5b80632c50b40d146103245780633066ebe614610344578063350c7d29146103625780633659cfe61461038257600080fd5b80630962348e116101ec5780630962348e146102a657806311937dc9146102c65780631694505e146102e657806329166e411461030657600080fd5b806271c1751461021c5780627e3dd2146102535780630103982d1461026f57806302839c9b14610284575b600080fd5b34801561022857600080fd5b5060ce546001600160a01b03165b6040516001600160a01b0390911681526020015b60405180910390f35b34801561025f57600080fd5b506040516001815260200161024a565b34801561027b57600080fd5b5061023661062b565b34801561029057600080fd5b506102a461029f366004611925565b6106c6565b005b3480156102b257600080fd5b5060c954610236906001600160a01b031681565b3480156102d257600080fd5b506102a46102e1366004611925565b610747565b3480156102f257600080fd5b5060ce54610236906001600160a01b031681565b34801561031257600080fd5b5060d0546001600160a01b0316610236565b34801561033057600080fd5b506102a461033f366004611925565b610803565b34801561035057600080fd5b5060cb546001600160a01b0316610236565b34801561036e57600080fd5b506102a461037d366004611925565b6108b7565b34801561038e57600080fd5b506102a461039d366004611925565b61096b565b3480156103ae57600080fd5b506102a46103bd366004611925565b610b09565b3480156103ce57600080fd5b506102a46103dd366004611925565b610bbd565b6102a46103f036600461195d565b610c71565b34801561040157600080fd5b5061040a610e00565b60405190815260200161024a565b34801561042457600080fd5b5060cd546001600160a01b0316610236565b34801561044257600080fd5b50610236610ec5565b34801561045757600080fd5b5060c9546001600160a01b0316610236565b34801561047557600080fd5b506102a4610f23565b34801561048a57600080fd5b5060cb54610236906001600160a01b031681565b3480156104aa57600080fd5b506102a4610f89565b3480156104bf57600080fd5b506097546001600160a01b0316610236565b3480156104dd57600080fd5b5060ca546001600160a01b0316610236565b3480156104fb57600080fd5b506102a461050a366004611925565b611060565b34801561051b57600080fd5b5060cc546001600160a01b0316610236565b34801561053957600080fd5b5060ca54610236906001600160a01b031681565b34801561055957600080fd5b506102a4610568366004611925565b6110dc565b34801561057957600080fd5b5060cd54610236906001600160a01b031681565b34801561059957600080fd5b5060cc54610236906001600160a01b031681565b3480156105b957600080fd5b5060cf546001600160a01b0316610236565b3480156105d757600080fd5b5060d054610236906001600160a01b031681565b3480156105f757600080fd5b5060cf54610236906001600160a01b031681565b34801561061757600080fd5b506102a4610626366004611925565b611158565b60ce54604080517fc45a015500000000000000000000000000000000000000000000000000000000815290516000926001600160a01b03169163c45a0155916004808301926020929190829003018186803b15801561068957600080fd5b505afa15801561069d573d6000803e3d6000fd5b505050506040513d601f19601f820116820180604052508101906106c19190611941565b905090565b6097546001600160a01b031633146107255760405162461bcd60e51b815260206004820181905260248201527f4f776e61626c653a2063616c6c6572206973206e6f7420746865206f776e657260448201526064015b60405180910390fd5b60cf80546001600160a01b0319166001600160a01b0392909216919091179055565b6097546001600160a01b031633146107a15760405162461bcd60e51b815260206004820181905260248201527f4f776e61626c653a2063616c6c6572206973206e6f7420746865206f776e6572604482015260640161071c565b60cb80546001600160a01b038381166001600160a01b031983168117909355604080519190921680825260208201939093527f5e60868b67ea71bce4b4a21e8c0f0ac4e6db30249bc6d34f83685ed22c3ccf2091015b60405180910390a15050565b6097546001600160a01b0316331461085d5760405162461bcd60e51b815260206004820181905260248201527f4f776e61626c653a2063616c6c6572206973206e6f7420746865206f776e6572604482015260640161071c565b60ca80546001600160a01b038381166001600160a01b031983168117909355604080519190921680825260208201939093527f844dcc7bf0c9b2dad005a8fd7a2968bd79511eb65b7f1e51b4dbfc053317761391016107f7565b6097546001600160a01b031633146109115760405162461bcd60e51b815260206004820181905260248201527f4f776e61626c653a2063616c6c6572206973206e6f7420746865206f776e6572604482015260640161071c565b60cd80546001600160a01b038381166001600160a01b031983168117909355604080519190921680825260208201939093527ffff320da164421caa6e50a928420d3af7d911bcf5ec06cc0a6dac369a4f68acf91016107f7565b306001600160a01b037f0000000000000000000000000000000000000000000000000000000000000000161415610a0a5760405162461bcd60e51b815260206004820152602c60248201527f46756e6374696f6e206d7573742062652063616c6c6564207468726f7567682060448201527f64656c656761746563616c6c0000000000000000000000000000000000000000606482015260840161071c565b7f00000000000000000000000000000000000000000000000000000000000000006001600160a01b0316610a657f360894a13ba1a3210667c828492db98dca3e2076cc3735a920a3ca505d382bbc546001600160a01b031690565b6001600160a01b031614610ae15760405162461bcd60e51b815260206004820152602c60248201527f46756e6374696f6e206d7573742062652063616c6c6564207468726f7567682060448201527f6163746976652070726f78790000000000000000000000000000000000000000606482015260840161071c565b610aea81611237565b60408051600080825260208201909252610b0691839190611291565b50565b6097546001600160a01b03163314610b635760405162461bcd60e51b815260206004820181905260248201527f4f776e61626c653a2063616c6c6572206973206e6f7420746865206f776e6572604482015260640161071c565b60c980546001600160a01b038381166001600160a01b031983168117909355604080519190921680825260208201939093527fffd3cec1839f24e1c2186c60b798f66cb357faa1380db969b77ee7c3a7c2ebc891016107f7565b6097546001600160a01b03163314610c175760405162461bcd60e51b815260206004820181905260248201527f4f776e61626c653a2063616c6c6572206973206e6f7420746865206f776e6572604482015260640161071c565b60cc80546001600160a01b038381166001600160a01b031983168117909355604080519190921680825260208201939093527f75d25e61ea407f503bbf05202b7119c3a17f2e07207e0c470a27212d08ddb5e991016107f7565b306001600160a01b037f0000000000000000000000000000000000000000000000000000000000000000161415610d105760405162461bcd60e51b815260206004820152602c60248201527f46756e6374696f6e206d7573742062652063616c6c6564207468726f7567682060448201527f64656c656761746563616c6c0000000000000000000000000000000000000000606482015260840161071c565b7f00000000000000000000000000000000000000000000000000000000000000006001600160a01b0316610d6b7f360894a13ba1a3210667c828492db98dca3e2076cc3735a920a3ca505d382bbc546001600160a01b031690565b6001600160a01b031614610de75760405162461bcd60e51b815260206004820152602c60248201527f46756e6374696f6e206d7573742062652063616c6c6564207468726f7567682060448201527f6163746976652070726f78790000000000000000000000000000000000000000606482015260840161071c565b610df082611237565b610dfc82826001611291565b5050565b6000306001600160a01b037f00000000000000000000000000000000000000000000000000000000000000001614610ea05760405162461bcd60e51b815260206004820152603860248201527f555550535570677261646561626c653a206d757374206e6f742062652063616c60448201527f6c6564207468726f7567682064656c656761746563616c6c0000000000000000606482015260840161071c565b507f360894a13ba1a3210667c828492db98dca3e2076cc3735a920a3ca505d382bbc90565b60ce54604080517fad5c464800000000000000000000000000000000000000000000000000000000815290516000926001600160a01b03169163ad5c4648916004808301926020929190829003018186803b15801561068957600080fd5b6097546001600160a01b03163314610f7d5760405162461bcd60e51b815260206004820181905260248201527f4f776e61626c653a2063616c6c6572206973206e6f7420746865206f776e6572604482015260640161071c565b610f876000611445565b565b600054610100900460ff16610fa45760005460ff1615610fa8565b303b155b61101a5760405162461bcd60e51b815260206004820152602e60248201527f496e697469616c697a61626c653a20636f6e747261637420697320616c72656160448201527f647920696e697469616c697a6564000000000000000000000000000000000000606482015260840161071c565b600054610100900460ff1615801561103c576000805461ffff19166101011790555b611044611497565b61104c61151c565b8015610b06576000805461ff001916905550565b6097546001600160a01b031633146110ba5760405162461bcd60e51b815260206004820181905260248201527f4f776e61626c653a2063616c6c6572206973206e6f7420746865206f776e6572604482015260640161071c565b60d080546001600160a01b0319166001600160a01b0392909216919091179055565b6097546001600160a01b031633146111365760405162461bcd60e51b815260206004820181905260248201527f4f776e61626c653a2063616c6c6572206973206e6f7420746865206f776e6572604482015260640161071c565b60ce80546001600160a01b0319166001600160a01b0392909216919091179055565b6097546001600160a01b031633146111b25760405162461bcd60e51b815260206004820181905260248201527f4f776e61626c653a2063616c6c6572206973206e6f7420746865206f776e6572604482015260640161071c565b6001600160a01b03811661122e5760405162461bcd60e51b815260206004820152602660248201527f4f776e61626c653a206e6577206f776e657220697320746865207a65726f206160448201527f6464726573730000000000000000000000000000000000000000000000000000606482015260840161071c565b610b0681611445565b6097546001600160a01b03163314610b065760405162461bcd60e51b815260206004820181905260248201527f4f776e61626c653a2063616c6c6572206973206e6f7420746865206f776e6572604482015260640161071c565b7f4910fdfa16fed3260ed0e7147f7cc6da11a60208b5b9406d12a635614ffd91435460ff16156112c9576112c48361162b565b505050565b826001600160a01b03166352d1902d6040518163ffffffff1660e01b815260040160206040518083038186803b15801561130257600080fd5b505afa925050508015611332575060408051601f3d908101601f1916820190925261132f91810190611a1c565b60015b6113a45760405162461bcd60e51b815260206004820152602e60248201527f45524331393637557067726164653a206e657720696d706c656d656e7461746960448201527f6f6e206973206e6f742055555053000000000000000000000000000000000000606482015260840161071c565b7f360894a13ba1a3210667c828492db98dca3e2076cc3735a920a3ca505d382bbc81146114395760405162461bcd60e51b815260206004820152602960248201527f45524331393637557067726164653a20756e737570706f727465642070726f7860448201527f6961626c65555549440000000000000000000000000000000000000000000000606482015260840161071c565b506112c48383836116e9565b609780546001600160a01b038381166001600160a01b0319831681179093556040519116919082907f8be0079c531659141344cd1fd0a4f28419497f9722a3daafe3b4186f6b6457e090600090a35050565b600054610100900460ff166115145760405162461bcd60e51b815260206004820152602b60248201527f496e697469616c697a61626c653a20636f6e7472616374206973206e6f74206960448201527f6e697469616c697a696e67000000000000000000000000000000000000000000606482015260840161071c565b610f87611714565b600054610100900460ff166115375760005460ff161561153b565b303b155b6115ad5760405162461bcd60e51b815260206004820152602e60248201527f496e697469616c697a61626c653a20636f6e747261637420697320616c72656160448201527f647920696e697469616c697a6564000000000000000000000000000000000000606482015260840161071c565b600054610100900460ff161580156115cf576000805461ffff19166101011790555b60d080546001600160a01b03199081167378867bbeef44f2326bf8ddd1941a4439382ef2a71790915560ce8054909116739ac64cc6e4415144c455bd8e4837fea55603e5c31790558015610b06576000805461ff001916905550565b6001600160a01b0381163b6116a85760405162461bcd60e51b815260206004820152602d60248201527f455243313936373a206e657720696d706c656d656e746174696f6e206973206e60448201527f6f74206120636f6e747261637400000000000000000000000000000000000000606482015260840161071c565b7f360894a13ba1a3210667c828492db98dca3e2076cc3735a920a3ca505d382bbc80546001600160a01b0319166001600160a01b0392909216919091179055565b6116f28361179a565b6000825111806116ff5750805b156112c45761170e83836117da565b50505050565b600054610100900460ff166117915760405162461bcd60e51b815260206004820152602b60248201527f496e697469616c697a61626c653a20636f6e7472616374206973206e6f74206960448201527f6e697469616c697a696e67000000000000000000000000000000000000000000606482015260840161071c565b610f8733611445565b6117a38161162b565b6040516001600160a01b038216907fbc7cd75a20ee27fd9adebab32041f755214dbc6bffa90cc0225b39da2e5c2d3b90600090a250565b60606001600160a01b0383163b6118595760405162461bcd60e51b815260206004820152602660248201527f416464726573733a2064656c65676174652063616c6c20746f206e6f6e2d636f60448201527f6e74726163740000000000000000000000000000000000000000000000000000606482015260840161071c565b600080846001600160a01b0316846040516118749190611a34565b600060405180830381855af49150503d80600081146118af576040519150601f19603f3d011682016040523d82523d6000602084013e6118b4565b606091505b50915091506118dc8282604051806060016040528060278152602001611af4602791396118e5565b95945050505050565b606083156118f457508161191e565b8251156119045782518084602001fd5b8160405162461bcd60e51b815260040161071c9190611a50565b9392505050565b600060208284031215611936578081fd5b813561191e81611ade565b600060208284031215611952578081fd5b815161191e81611ade565b6000806040838503121561196f578081fd5b823561197a81611ade565b9150602083013567ffffffffffffffff80821115611996578283fd5b818501915085601f8301126119a9578283fd5b8135818111156119bb576119bb611aaf565b604051601f8201601f19908116603f011681019083821181831017156119e3576119e3611aaf565b816040528281528860208487010111156119fb578586fd5b82602086016020830137856020848301015280955050505050509250929050565b600060208284031215611a2d578081fd5b5051919050565b60008251611a46818460208701611a83565b9190910192915050565b6020815260008251806020840152611a6f816040850160208701611a83565b601f01601f19169190910160400192915050565b60005b83811015611a9e578181015183820152602001611a86565b8381111561170e5750506000910152565b7f4e487b7100000000000000000000000000000000000000000000000000000000600052604160045260246000fd5b6001600160a01b0381168114610b0657600080fdfe416464726573733a206c6f772d6c6576656c2064656c65676174652063616c6c206661696c6564a26469706673582212209e7be94fe6d201c163ce0be1f616e96b56593a4806ffef26b8f4530bc7542f1264736f6c63430008040033",
  "devdoc": {
    "kind": "dev",
    "methods": {
      "owner()": {
        "details": "Returns the address of the current owner."
      },
      "proxiableUUID()": {
        "details": "Implementation of the ERC1822 {proxiableUUID} function. This returns the storage slot used by the implementation. It is used to validate that the this implementation remains valid after an upgrade. IMPORTANT: A proxy pointing at a proxiable contract should not be considered proxiable itself, because this risks bricking a proxy that upgrades to it, by delegating to itself until out of gas. Thus it is critical that this function revert if invoked through a proxy. This is guaranteed by the `notDelegated` modifier."
      },
      "renounceOwnership()": {
        "details": "Leaves the contract without owner. It will not be possible to call `onlyOwner` functions anymore. Can only be called by the current owner. NOTE: Renouncing ownership will leave the contract without an owner, thereby removing any functionality that is only available to the owner."
      },
      "transferOwnership(address)": {
        "details": "Transfers ownership of the contract to a new account (`newOwner`). Can only be called by the current owner."
      },
      "upgradeTo(address)": {
        "details": "Upgrade the implementation of the proxy to `newImplementation`. Calls {_authorizeUpgrade}. Emits an {Upgraded} event."
      },
      "upgradeToAndCall(address,bytes)": {
        "details": "Upgrade the implementation of the proxy to `newImplementation`, and subsequently execute the function call encoded in `data`. Calls {_authorizeUpgrade}. Emits an {Upgraded} event."
      }
    },
    "version": 1
  },
  "userdoc": {
    "events": {
      "NewGoldenTreePool(address,address)": {
        "notice": "Emitted when golden tree pool is changed"
      },
      "NewSmartAchievement(address,address)": {
        "notice": "Emitted when smart achievement system is changed"
      },
      "NewSmartArmy(address,address)": {
        "notice": "Emitted when smart army is changed"
      },
      "NewSmartFarm(address,address)": {
        "notice": "Emitted when smart farm is changed"
      },
      "NewSmartLadder(address,address)": {
        "notice": "Emitted when smart ladder is changed"
      }
    },
    "kind": "user",
    "methods": {
      "setBUSD(address)": {
        "notice": "Sets a new BUSD contract for the comptroller "
      },
      "setGoldenTreePool(address)": {
        "notice": "Sets a new golden tree pool contract for the comptroller "
      },
      "setSMT(address)": {
        "notice": "Sets a new BUSD contract for the comptroller "
      },
      "setSmartAchievement(address)": {
        "notice": "Sets a new achievement system contract for the comptroller "
      },
      "setSmartArmy(address)": {
        "notice": "Sets a new smart army contract for the comptroller "
      },
      "setSmartFarm(address)": {
        "notice": "Sets a new smart farm contract for the comptroller "
      },
      "setSmartLadder(address)": {
        "notice": "Sets a new smart ladder contract for the comptroller "
      },
      "setUniswapRouter(address)": {
        "notice": "Sets a new Uniswap Router 02 address contract for the comptroller "
      }
    },
    "version": 1
  },
  "storageLayout": {
    "storage": [
      {
        "astId": 519,
        "contract": "contracts/SmartComp.sol:SmartComp",
        "label": "_initialized",
        "offset": 0,
        "slot": "0",
        "type": "t_bool"
      },
      {
        "astId": 522,
        "contract": "contracts/SmartComp.sol:SmartComp",
        "label": "_initializing",
        "offset": 1,
        "slot": "0",
        "type": "t_bool"
      },
      {
        "astId": 501,
        "contract": "contracts/SmartComp.sol:SmartComp",
        "label": "__gap",
        "offset": 0,
        "slot": "1",
        "type": "t_array(t_uint256)50_storage"
      },
      {
        "astId": 721,
        "contract": "contracts/SmartComp.sol:SmartComp",
        "label": "__gap",
        "offset": 0,
        "slot": "51",
        "type": "t_array(t_uint256)50_storage"
      },
      {
        "astId": 1006,
        "contract": "contracts/SmartComp.sol:SmartComp",
        "label": "__gap",
        "offset": 0,
        "slot": "101",
        "type": "t_array(t_uint256)50_storage"
      },
      {
        "astId": 10,
        "contract": "contracts/SmartComp.sol:SmartComp",
        "label": "_owner",
        "offset": 0,
        "slot": "151",
        "type": "t_address"
      },
      {
        "astId": 122,
        "contract": "contracts/SmartComp.sol:SmartComp",
        "label": "__gap",
        "offset": 0,
        "slot": "152",
        "type": "t_array(t_uint256)49_storage"
      },
      {
        "astId": 7943,
        "contract": "contracts/SmartComp.sol:SmartComp",
        "label": "smartArmy",
        "offset": 0,
        "slot": "201",
        "type": "t_contract(ISmartArmy)13274"
      },
      {
        "astId": 7946,
        "contract": "contracts/SmartComp.sol:SmartComp",
        "label": "smartLadder",
        "offset": 0,
        "slot": "202",
        "type": "t_contract(ISmartLadder)13474"
      },
      {
        "astId": 7949,
        "contract": "contracts/SmartComp.sol:SmartComp",
        "label": "smartFarm",
        "offset": 0,
        "slot": "203",
        "type": "t_contract(ISmartFarm)13397"
      },
      {
        "astId": 7952,
        "contract": "contracts/SmartComp.sol:SmartComp",
        "label": "goldenTreePool",
        "offset": 0,
        "slot": "204",
        "type": "t_contract(IGoldenTreePool)13112"
      },
      {
        "astId": 7955,
        "contract": "contracts/SmartComp.sol:SmartComp",
        "label": "smartAchievement",
        "offset": 0,
        "slot": "205",
        "type": "t_contract(ISmartAchievement)13174"
      },
      {
        "astId": 7958,
        "contract": "contracts/SmartComp.sol:SmartComp",
        "label": "uniswapV2Router",
        "offset": 0,
        "slot": "206",
        "type": "t_contract(IUniswapV2Router02)14183"
      },
      {
        "astId": 7961,
        "contract": "contracts/SmartComp.sol:SmartComp",
        "label": "smtToken",
        "offset": 0,
        "slot": "207",
        "type": "t_contract(IERC20)1838"
      },
      {
        "astId": 7964,
        "contract": "contracts/SmartComp.sol:SmartComp",
        "label": "busdToken",
        "offset": 0,
        "slot": "208",
        "type": "t_contract(IERC20)1838"
      }
    ],
    "types": {
      "t_address": {
        "encoding": "inplace",
        "label": "address",
        "numberOfBytes": "20"
      },
      "t_array(t_uint256)49_storage": {
        "base": "t_uint256",
        "encoding": "inplace",
        "label": "uint256[49]",
        "numberOfBytes": "1568"
      },
      "t_array(t_uint256)50_storage": {
        "base": "t_uint256",
        "encoding": "inplace",
        "label": "uint256[50]",
        "numberOfBytes": "1600"
      },
      "t_bool": {
        "encoding": "inplace",
        "label": "bool",
        "numberOfBytes": "1"
      },
      "t_contract(IERC20)1838": {
        "encoding": "inplace",
        "label": "contract IERC20",
        "numberOfBytes": "20"
      },
      "t_contract(IGoldenTreePool)13112": {
        "encoding": "inplace",
        "label": "contract IGoldenTreePool",
        "numberOfBytes": "20"
      },
      "t_contract(ISmartAchievement)13174": {
        "encoding": "inplace",
        "label": "contract ISmartAchievement",
        "numberOfBytes": "20"
      },
      "t_contract(ISmartArmy)13274": {
        "encoding": "inplace",
        "label": "contract ISmartArmy",
        "numberOfBytes": "20"
      },
      "t_contract(ISmartFarm)13397": {
        "encoding": "inplace",
        "label": "contract ISmartFarm",
        "numberOfBytes": "20"
      },
      "t_contract(ISmartLadder)13474": {
        "encoding": "inplace",
        "label": "contract ISmartLadder",
        "numberOfBytes": "20"
      },
      "t_contract(IUniswapV2Router02)14183": {
        "encoding": "inplace",
        "label": "contract IUniswapV2Router02",
        "numberOfBytes": "20"
      },
      "t_uint256": {
        "encoding": "inplace",
        "label": "uint256",
        "numberOfBytes": "32"
      }
    }
  }
}