{
  "address": "0xCF6fB9dd95a486e587fF53194B06FE6082220A37",
  "abi": [
    {
      "inputs": [
        {
          "internalType": "address",
          "name": "_wbnb",
          "type": "address"
        },
        {
          "internalType": "address",
          "name": "_factory",
          "type": "address"
        }
      ],
      "stateMutability": "nonpayable",
      "type": "constructor"
    },
    {
      "anonymous": false,
      "inputs": [
        {
          "indexed": true,
          "internalType": "address",
          "name": "previousOwner",
          "type": "address"
        },
        {
          "indexed": true,
          "internalType": "address",
          "name": "newOwner",
          "type": "address"
        }
      ],
      "name": "OwnershipTransferred",
      "type": "event"
    },
    {
      "inputs": [],
      "name": "FEE_DENOMINATOR",
      "outputs": [
        {
          "internalType": "uint256",
          "name": "",
          "type": "uint256"
        }
      ],
      "stateMutability": "view",
      "type": "function"
    },
    {
      "inputs": [],
      "name": "WBNB",
      "outputs": [
        {
          "internalType": "address",
          "name": "",
          "type": "address"
        }
      ],
      "stateMutability": "view",
      "type": "function"
    },
    {
      "inputs": [],
      "name": "aggregatorFee",
      "outputs": [
        {
          "internalType": "uint256",
          "name": "",
          "type": "uint256"
        }
      ],
      "stateMutability": "view",
      "type": "function"
    },
    {
      "inputs": [
        {
          "internalType": "address",
          "name": "token",
          "type": "address"
        }
      ],
      "name": "collect",
      "outputs": [],
      "stateMutability": "nonpayable",
      "type": "function"
    },
    {
      "inputs": [],
      "name": "owner",
      "outputs": [
        {
          "internalType": "address",
          "name": "",
          "type": "address"
        }
      ],
      "stateMutability": "view",
      "type": "function"
    },
    {
      "inputs": [],
      "name": "pancakeFactory",
      "outputs": [
        {
          "internalType": "address",
          "name": "",
          "type": "address"
        }
      ],
      "stateMutability": "view",
      "type": "function"
    },
    {
      "inputs": [],
      "name": "renounceOwnership",
      "outputs": [],
      "stateMutability": "nonpayable",
      "type": "function"
    },
    {
      "inputs": [
        {
          "internalType": "uint256",
          "name": "_fee",
          "type": "uint256"
        }
      ],
      "name": "setAggregatorFee",
      "outputs": [],
      "stateMutability": "nonpayable",
      "type": "function"
    },
    {
      "inputs": [
        {
          "internalType": "address",
          "name": "_factory",
          "type": "address"
        }
      ],
      "name": "setPancakeFactory",
      "outputs": [],
      "stateMutability": "nonpayable",
      "type": "function"
    },
    {
      "inputs": [
        {
          "internalType": "address",
          "name": "_wbnb",
          "type": "address"
        }
      ],
      "name": "setWBNB",
      "outputs": [],
      "stateMutability": "nonpayable",
      "type": "function"
    },
    {
      "inputs": [
        {
          "internalType": "uint256",
          "name": "swapAmountOutMin",
          "type": "uint256"
        },
        {
          "internalType": "address[]",
          "name": "path",
          "type": "address[]"
        },
        {
          "internalType": "address",
          "name": "to",
          "type": "address"
        },
        {
          "internalType": "uint256",
          "name": "deadline",
          "type": "uint256"
        }
      ],
      "name": "swapExactETHForTokensSupportingFeeOnTransferTokens",
      "outputs": [],
      "stateMutability": "payable",
      "type": "function"
    },
    {
      "inputs": [
        {
          "internalType": "uint256",
          "name": "amountIn",
          "type": "uint256"
        },
        {
          "internalType": "uint256",
          "name": "swapAmountOutMin",
          "type": "uint256"
        },
        {
          "internalType": "address[]",
          "name": "path",
          "type": "address[]"
        },
        {
          "internalType": "address",
          "name": "to",
          "type": "address"
        },
        {
          "internalType": "uint256",
          "name": "deadline",
          "type": "uint256"
        }
      ],
      "name": "swapExactTokensForETHSupportingFeeOnTransferTokens",
      "outputs": [],
      "stateMutability": "nonpayable",
      "type": "function"
    },
    {
      "inputs": [
        {
          "internalType": "uint256",
          "name": "amountIn",
          "type": "uint256"
        },
        {
          "internalType": "uint256",
          "name": "swapAmountOutMin",
          "type": "uint256"
        },
        {
          "internalType": "address[]",
          "name": "path",
          "type": "address[]"
        },
        {
          "internalType": "address",
          "name": "to",
          "type": "address"
        },
        {
          "internalType": "uint256",
          "name": "deadline",
          "type": "uint256"
        }
      ],
      "name": "swapExactTokensForTokensSupportingFeeOnTransferTokens",
      "outputs": [],
      "stateMutability": "nonpayable",
      "type": "function"
    },
    {
      "inputs": [
        {
          "internalType": "address",
          "name": "newOwner",
          "type": "address"
        }
      ],
      "name": "transferOwnership",
      "outputs": [],
      "stateMutability": "nonpayable",
      "type": "function"
    },
    {
      "stateMutability": "payable",
      "type": "receive"
    }
  ],
  "transactionHash": "0xf1929eafe5772c86f774d11c1322abaded0b0b884a00d9c6ec2c815cc5e425b4",
  "args": [
    "0xae13d989daC2f0dEbFf460aC112a837C89BAa7cd",
    "0xB7926C0430Afb07AA7DEfDE6DA862aE0Bde767bc"
  ],
  "solcInputHash": "7bb9a21f4bd5e36e6798c99a30d27dc4",
  "bytecode": "0x608060405260006003553480156200001657600080fd5b506040516200258d3803806200258d833981016040819052620000399162000197565b62000044336200012a565b6001600160a01b038216620000a05760405162461bcd60e51b815260206004820152601c60248201527f534d544272696467653a205a45524f5f57424e425f414444524553530000000060448201526064015b60405180910390fd5b6001600160a01b038116620000f85760405162461bcd60e51b815260206004820152601f60248201527f534d544272696467653a205a45524f5f464143544f52595f4144445245535300604482015260640162000097565b600180546001600160a01b039384166001600160a01b03199182161790915560028054929093169116179055620001ce565b600080546001600160a01b038381166001600160a01b0319831681178455604051919092169283917f8be0079c531659141344cd1fd0a4f28419497f9722a3daafe3b4186f6b6457e09190a35050565b80516001600160a01b03811681146200019257600080fd5b919050565b60008060408385031215620001aa578182fd5b620001b5836200017a565b9150620001c5602084016200017a565b90509250929050565b6123af80620001de6000396000f3fe6080604052600436106100e15760003560e01c80639ed5b4dd1161007f578063cab27a6411610059578063cab27a6414610232578063d73792a914610252578063e0f1c9c51461026b578063f2fde38b1461028b57600080fd5b80639ed5b4dd146101db578063a8b13ef3146101ff578063b6f9de951461021f57600080fd5b8063715018a6116100bb578063715018a61461014f578063791ac947146101645780638da5cb5b146101845780638dd95002146101bb57600080fd5b806306ec16f8146100ed578063355466c81461010f5780635c11d7951461012f57600080fd5b366100e857005b600080fd5b3480156100f957600080fd5b5061010d61010836600461207c565b6102ab565b005b34801561011b57600080fd5b5061010d61012a366004612122565b61046f565b34801561013b57600080fd5b5061010d61014a3660046121b7565b6104d3565b34801561015b57600080fd5b5061010d6105bf565b34801561017057600080fd5b5061010d61017f3660046121b7565b610625565b34801561019057600080fd5b506000546001600160a01b03165b6040516001600160a01b0390911681526020015b60405180910390f35b3480156101c757600080fd5b5060015461019e906001600160a01b031681565b3480156101e757600080fd5b506101f160035481565b6040519081526020016101b2565b34801561020b57600080fd5b5061010d61021a36600461207c565b61073f565b61010d61022d366004612152565b6107c8565b34801561023e57600080fd5b5061010d61024d36600461207c565b610875565b34801561025e57600080fd5b506101f16402540be40081565b34801561027757600080fd5b5060025461019e906001600160a01b031681565b34801561029757600080fd5b5061010d6102a636600461207c565b6108fe565b6001546001600160a01b03828116911614156103da576040516370a0823160e01b81523060048201526000906001600160a01b038316906370a082319060240160206040518083038186803b15801561030357600080fd5b505afa158015610317573d6000803e3d6000fd5b505050506040513d601f19601f8201168201806040525081019061033b919061213a565b905080156103bb576001546040517f2e1a7d4d000000000000000000000000000000000000000000000000000000008152600481018390526001600160a01b0390911690632e1a7d4d90602401600060405180830381600087803b1580156103a257600080fd5b505af11580156103b6573d6000803e3d6000fd5b505050505b6103d66103d06000546001600160a01b031690565b476109dd565b5050565b61046c816103f06000546001600160a01b031690565b6040516370a0823160e01b81523060048201526001600160a01b038516906370a082319060240160206040518083038186803b15801561042f57600080fd5b505afa158015610443573d6000803e3d6000fd5b505050506040513d601f19601f82011682018060405250810190610467919061213a565b610ac5565b50565b6000546001600160a01b031633146104ce5760405162461bcd60e51b815260206004820181905260248201527f4f776e61626c653a2063616c6c6572206973206e6f7420746865206f776e657260448201526064015b60405180910390fd5b600355565b80428110156105245760405162461bcd60e51b815260206004820152601260248201527f534d544272696467653a2045585049524544000000000000000000000000000060448201526064016104c5565b600061053288888888610c0e565b9050600061055a6402540be40061055460035485610f1190919063ffffffff16565b90610f87565b905060006105688383610f9a565b90506105b3888861057a6001826122ec565b81811061059757634e487b7160e01b600052603260045260246000fd5b90506020020160208101906105ac919061207c565b8783610ac5565b50505050505050505050565b6000546001600160a01b031633146106195760405162461bcd60e51b815260206004820181905260248201527f4f776e61626c653a2063616c6c6572206973206e6f7420746865206f776e657260448201526064016104c5565b6106236000610ff8565b565b80428110156106765760405162461bcd60e51b815260206004820152601260248201527f534d544272696467653a2045585049524544000000000000000000000000000060448201526064016104c5565b600061068488888888611055565b905060006106a66402540be40061055460035485610f1190919063ffffffff16565b6001546040517f2e1a7d4d000000000000000000000000000000000000000000000000000000008152600481018590529192506001600160a01b031690632e1a7d4d90602401600060405180830381600087803b15801561070657600080fd5b505af115801561071a573d6000803e3d6000fd5b5050505060006107338284610f9a90919063ffffffff16565b90506105b386826109dd565b6000546001600160a01b031633146107995760405162461bcd60e51b815260206004820181905260248201527f4f776e61626c653a2063616c6c6572206973206e6f7420746865206f776e657260448201526064016104c5565b6002805473ffffffffffffffffffffffffffffffffffffffff19166001600160a01b0392909216919091179055565b80428110156108195760405162461bcd60e51b815260206004820152601260248201527f534d544272696467653a2045585049524544000000000000000000000000000060448201526064016104c5565b60006108288787876000611215565b9050600061084a6402540be40061055460035485610f1190919063ffffffff16565b905060006108588383610f9a565b905061086a888861057a6001826122ec565b505050505050505050565b6000546001600160a01b031633146108cf5760405162461bcd60e51b815260206004820181905260248201527f4f776e61626c653a2063616c6c6572206973206e6f7420746865206f776e657260448201526064016104c5565b6001805473ffffffffffffffffffffffffffffffffffffffff19166001600160a01b0392909216919091179055565b6000546001600160a01b031633146109585760405162461bcd60e51b815260206004820181905260248201527f4f776e61626c653a2063616c6c6572206973206e6f7420746865206f776e657260448201526064016104c5565b6001600160a01b0381166109d45760405162461bcd60e51b815260206004820152602660248201527f4f776e61626c653a206e6577206f776e657220697320746865207a65726f206160448201527f646472657373000000000000000000000000000000000000000000000000000060648201526084016104c5565b61046c81610ff8565b604080516000808252602082019092526001600160a01b038416908390604051610a079190612228565b60006040518083038185875af1925050503d8060008114610a44576040519150601f19603f3d011682016040523d82523d6000602084013e610a49565b606091505b5050905080610ac05760405162461bcd60e51b815260206004820152602360248201527f5472616e7366657248656c7065723a204554485f5452414e534645525f46414960448201527f4c4544000000000000000000000000000000000000000000000000000000000060648201526084016104c5565b505050565b604080516001600160a01b038481166024830152604480830185905283518084039091018152606490920183526020820180517bffffffffffffffffffffffffffffffffffffffffffffffffffffffff167fa9059cbb000000000000000000000000000000000000000000000000000000001790529151600092839290871691610b4f9190612228565b6000604051808303816000865af19150503d8060008114610b8c576040519150601f19603f3d011682016040523d82523d6000602084013e610b91565b606091505b5091509150818015610bbb575080511580610bbb575080806020019051810190610bbb91906120b4565b610c075760405162461bcd60e51b815260206004820152601f60248201527f5472616e7366657248656c7065723a205452414e534645525f4641494c45440060448201526064016104c5565b5050505050565b6000610cd083836000818110610c3457634e487b7160e01b600052603260045260246000fd5b9050602002016020810190610c49919061207c565b6002543390610cca906001600160a01b03168787600081610c7a57634e487b7160e01b600052603260045260246000fd5b9050602002016020810190610c8f919061207c565b88886001818110610cb057634e487b7160e01b600052603260045260246000fd5b9050602002016020810190610cc5919061207c565b61164d565b8861173e565b60008383610cdf6001826122ec565b818110610cfc57634e487b7160e01b600052603260045260246000fd5b9050602002016020810190610d11919061207c565b6040516370a0823160e01b81523060048201526001600160a01b0391909116906370a082319060240160206040518083038186803b158015610d5257600080fd5b505afa158015610d66573d6000803e3d6000fd5b505050506040513d601f19601f82011682018060405250810190610d8a919061213a565b9050610dca848480806020026020016040519081016040528093929190818152602001838360200280828437600092019190915250309250611810915050565b6000610e8f828686610ddd6001826122ec565b818110610dfa57634e487b7160e01b600052603260045260246000fd5b9050602002016020810190610e0f919061207c565b6040516370a0823160e01b81523060048201526001600160a01b0391909116906370a08231906024015b60206040518083038186803b158015610e5157600080fd5b505afa158015610e65573d6000803e3d6000fd5b505050506040513d601f19601f82011682018060405250810190610e89919061213a565b90610f9a565b905085811015610f075760405162461bcd60e51b815260206004820152602560248201527f534d544272696467653a20494e53554646494349454e545f4f55545055545f4160448201527f4d4f554e5400000000000000000000000000000000000000000000000000000060648201526084016104c5565b9695505050505050565b6000811580610f3557508282610f2781836122cd565b9250610f3390836122ad565b145b610f815760405162461bcd60e51b815260206004820152601460248201527f64732d6d6174682d6d756c2d6f766572666c6f7700000000000000000000000060448201526064016104c5565b92915050565b6000610f9382846122ad565b9392505050565b600082610fa783826122ec565b9150811115610f815760405162461bcd60e51b815260206004820152601560248201527f64732d6d6174682d7375622d756e646572666c6f77000000000000000000000060448201526064016104c5565b600080546001600160a01b0383811673ffffffffffffffffffffffffffffffffffffffff19831681178455604051919092169283917f8be0079c531659141344cd1fd0a4f28419497f9722a3daafe3b4186f6b6457e09190a35050565b600180546000916001600160a01b03909116908490849061107690826122ec565b81811061109357634e487b7160e01b600052603260045260246000fd5b90506020020160208101906110a8919061207c565b6001600160a01b0316146110fe5760405162461bcd60e51b815260206004820152601760248201527f534d544272696467653a20494e56414c49445f5041544800000000000000000060448201526064016104c5565b61112283836000818110610c3457634e487b7160e01b600052603260045260246000fd5b6001546040516370a0823160e01b81523060048201526000916001600160a01b0316906370a082319060240160206040518083038186803b15801561116657600080fd5b505afa15801561117a573d6000803e3d6000fd5b505050506040513d601f19601f8201168201806040525081019061119e919061213a565b90506111de848480806020026020016040519081016040528093929190818152602001838360200280828437600092019190915250309250611810915050565b6001546040516370a0823160e01b8152306004820152600091610e8f9184916001600160a01b0316906370a0823190602401610e39565b6001546000906001600160a01b03168484838161124257634e487b7160e01b600052603260045260246000fd5b9050602002016020810190611257919061207c565b6001600160a01b0316146112ad5760405162461bcd60e51b815260206004820152601760248201527f534d544272696467653a20494e56414c49445f5041544800000000000000000060448201526064016104c5565b60006112b93484610f9a565b9050600081116113305760405162461bcd60e51b8152602060048201526024808201527f534d544272696467653a20494e53554646494349454e545f494e5055545f414d60448201527f4f554e540000000000000000000000000000000000000000000000000000000060648201526084016104c5565b600160009054906101000a90046001600160a01b03166001600160a01b031663d0e30db0826040518263ffffffff1660e01b81526004016000604051808303818588803b15801561138057600080fd5b505af1158015611394573d6000803e3d6000fd5b50506001546002546001600160a01b03918216945063a9059cbb935061140b92501688886000816113d557634e487b7160e01b600052603260045260246000fd5b90506020020160208101906113ea919061207c565b89896001818110610cb057634e487b7160e01b600052603260045260246000fd5b6040517fffffffff0000000000000000000000000000000000000000000000000000000060e084901b1681526001600160a01b03909116600482015260248101849052604401602060405180830381600087803b15801561146b57600080fd5b505af115801561147f573d6000803e3d6000fd5b505050506040513d601f19601f820116820180604052508101906114a391906120b4565b6114bd57634e487b7160e01b600052600160045260246000fd5b600085856114cc6001826122ec565b8181106114e957634e487b7160e01b600052603260045260246000fd5b90506020020160208101906114fe919061207c565b6040516370a0823160e01b81523060048201526001600160a01b0391909116906370a082319060240160206040518083038186803b15801561153f57600080fd5b505afa158015611553573d6000803e3d6000fd5b505050506040513d601f19601f82011682018060405250810190611577919061213a565b90506115b7868680806020026020016040519081016040528093929190818152602001838360200280828437600092019190915250309250611810915050565b60006115ca828888610ddd6001826122ec565b9050878110156116425760405162461bcd60e51b815260206004820152602560248201527f534d544272696467653a20494e53554646494349454e545f4f55545055545f4160448201527f4d4f554e5400000000000000000000000000000000000000000000000000000060648201526084016104c5565b979650505050505050565b600080600061165c8585611bfe565b6040516bffffffffffffffffffffffff19606084811b8216602084015283901b166034820152919350915086906048016040516020818303038152906040528051906020012060405160200161171c9291907fff00000000000000000000000000000000000000000000000000000000000000815260609290921b6bffffffffffffffffffffffff1916600183015260158201527fecba335299a6693cb2ebc4782e74669b84290b6378ea3a3873c7231a8d7d1074603582015260550190565b60408051601f1981840301815291905280516020909101209695505050505050565b6040516370a0823160e01b81523060048201526000906001600160a01b038616906370a082319060240160206040518083038186803b15801561178057600080fd5b505afa158015611794573d6000803e3d6000fd5b505050506040513d601f19601f820116820180604052508101906117b8919061213a565b90506117c685853085611d0e565b6040516370a0823160e01b81523060048201526000906117fb9083906001600160a01b038916906370a0823190602401610e39565b9050611808868583610ac5565b505050505050565b60005b6001835161182191906122ec565b811015610ac05760008084838151811061184b57634e487b7160e01b600052603260045260246000fd5b6020026020010151858460016118619190612295565b8151811061187f57634e487b7160e01b600052603260045260246000fd5b60200260200101519150915060006118978383611bfe565b506002546040517fe6a439050000000000000000000000000000000000000000000000000000000081526001600160a01b03868116600483015285811660248301529293506000929091169063e6a439059060440160206040518083038186803b15801561190457600080fd5b505afa158015611918573d6000803e3d6000fd5b505050506040513d601f19601f8201168201806040525081019061193c9190612098565b6001600160a01b031614156119935760405162461bcd60e51b815260206004820152601960248201527f534d544272696467653a20504149525f4e4f545f45584953540000000000000060448201526064016104c5565b6002546000906119ad906001600160a01b0316858561164d565b9050600080600080846001600160a01b0316630902f1ac6040518163ffffffff1660e01b815260040160606040518083038186803b1580156119ee57600080fd5b505afa158015611a02573d6000803e3d6000fd5b505050506040513d601f19601f82011682018060405250810190611a2691906120d4565b506dffffffffffffffffffffffffffff1691506dffffffffffffffffffffffffffff169150600080876001600160a01b03168a6001600160a01b031614611a6e578284611a71565b83835b6040516370a0823160e01b81526001600160a01b038a81166004830152929450909250611aac918491908d16906370a0823190602401610e39565b9550611ab9868383611e7d565b945050505050600080856001600160a01b0316886001600160a01b031614611ae357826000611ae7565b6000835b91509150600060028c51611afb91906122ec565b8a10611b07578a611b55565b60028054611b55916001600160a01b03909116908a908f90611b2a908f90612295565b81518110611b4857634e487b7160e01b600052603260045260246000fd5b602002602001015161164d565b604080516000815260208101918290527f022c0d9f000000000000000000000000000000000000000000000000000000009091529091506001600160a01b0387169063022c0d9f90611bb09086908690869060248101612244565b600060405180830381600087803b158015611bca57600080fd5b505af1158015611bde573d6000803e3d6000fd5b505050505050505050505050508080611bf690612333565b915050611813565b600080826001600160a01b0316846001600160a01b03161415611c895760405162461bcd60e51b815260206004820152602360248201527f50616e63616b654c6962726172793a204944454e544943414c5f41444452455360448201527f534553000000000000000000000000000000000000000000000000000000000060648201526084016104c5565b826001600160a01b0316846001600160a01b031610611ca9578284611cac565b83835b90925090506001600160a01b038216611d075760405162461bcd60e51b815260206004820152601c60248201527f50616e63616b654c6962726172793a205a45524f5f414444524553530000000060448201526064016104c5565b9250929050565b604080516001600160a01b0385811660248301528481166044830152606480830185905283518084039091018152608490920183526020820180517bffffffffffffffffffffffffffffffffffffffffffffffffffffffff167f23b872dd000000000000000000000000000000000000000000000000000000001790529151600092839290881691611da09190612228565b6000604051808303816000865af19150503d8060008114611ddd576040519150601f19603f3d011682016040523d82523d6000602084013e611de2565b606091505b5091509150818015611e0c575080511580611e0c575080806020019051810190611e0c91906120b4565b6118085760405162461bcd60e51b8152602060048201526024808201527f5472616e7366657248656c7065723a205452414e534645525f46524f4d5f464160448201527f494c45440000000000000000000000000000000000000000000000000000000060648201526084016104c5565b6000808411611ef45760405162461bcd60e51b815260206004820152602960248201527f50616e63616b654c6962726172793a20494e53554646494349454e545f494e5060448201527f55545f414d4f554e54000000000000000000000000000000000000000000000060648201526084016104c5565b600083118015611f045750600082115b611f765760405162461bcd60e51b815260206004820152602660248201527f50616e63616b654c6962726172793a20494e53554646494349454e545f4c495160448201527f554944495459000000000000000000000000000000000000000000000000000060648201526084016104c5565b6000611f84856126f7610f11565b90506000611f928285610f11565b90506000611fac83611fa688612710610f11565b90611fb8565b905061164281836122ad565b600082611fc58382612295565b9150811015610f815760405162461bcd60e51b815260206004820152601460248201527f64732d6d6174682d6164642d6f766572666c6f7700000000000000000000000060448201526064016104c5565b60008083601f840112612027578182fd5b50813567ffffffffffffffff81111561203e578182fd5b6020830191508360208260051b8501011115611d0757600080fd5b80516dffffffffffffffffffffffffffff8116811461207757600080fd5b919050565b60006020828403121561208d578081fd5b8135610f9381612364565b6000602082840312156120a9578081fd5b8151610f9381612364565b6000602082840312156120c5578081fd5b81518015158114610f93578182fd5b6000806000606084860312156120e8578182fd5b6120f184612059565b92506120ff60208501612059565b9150604084015163ffffffff81168114612117578182fd5b809150509250925092565b600060208284031215612133578081fd5b5035919050565b60006020828403121561214b578081fd5b5051919050565b600080600080600060808688031215612169578081fd5b85359450602086013567ffffffffffffffff811115612186578182fd5b61219288828901612016565b90955093505060408601356121a681612364565b949793965091946060013592915050565b60008060008060008060a087890312156121cf578081fd5b8635955060208701359450604087013567ffffffffffffffff8111156121f3578182fd5b6121ff89828a01612016565b909550935050606087013561221381612364565b80925050608087013590509295509295509295565b6000825161223a818460208701612303565b9190910192915050565b8481528360208201526001600160a01b0383166040820152608060608201526000825180608084015261227e8160a0850160208701612303565b601f01601f19169190910160a00195945050505050565b600082198211156122a8576122a861234e565b500190565b6000826122c857634e487b7160e01b81526012600452602481fd5b500490565b60008160001904831182151516156122e7576122e761234e565b500290565b6000828210156122fe576122fe61234e565b500390565b60005b8381101561231e578181015183820152602001612306565b8381111561232d576000848401525b50505050565b60006000198214156123475761234761234e565b5060010190565b634e487b7160e01b600052601160045260246000fd5b6001600160a01b038116811461046c57600080fdfea26469706673582212204ded11027de77be6772788d78e2bd37b8d6f339bd8658281096191f1295278b964736f6c63430008040033",
  "devdoc": {
    "kind": "dev",
    "methods": {
      "owner()": {
        "details": "Returns the address of the current owner."
      },
      "renounceOwnership()": {
        "details": "Leaves the contract without owner. It will not be possible to call `onlyOwner` functions anymore. Can only be called by the current owner. NOTE: Renouncing ownership will leave the contract without an owner, thereby removing any functionality that is only available to the owner."
      },
      "transferOwnership(address)": {
        "details": "Transfers ownership of the contract to a new account (`newOwner`). Can only be called by the current owner."
      }
    },
    "version": 1
  },
  "userdoc": {
    "kind": "user",
    "methods": {},
    "version": 1
  },
  "storageLayout": {
    "storage": [
      {
        "astId": 1075,
        "contract": "contracts/SMTBridge.sol:SMTBridge",
        "label": "_owner",
        "offset": 0,
        "slot": "0",
        "type": "t_address"
      },
      {
        "astId": 4236,
        "contract": "contracts/SMTBridge.sol:SMTBridge",
        "label": "WBNB",
        "offset": 0,
        "slot": "1",
        "type": "t_address"
      },
      {
        "astId": 4238,
        "contract": "contracts/SMTBridge.sol:SMTBridge",
        "label": "pancakeFactory",
        "offset": 0,
        "slot": "2",
        "type": "t_address"
      },
      {
        "astId": 4241,
        "contract": "contracts/SMTBridge.sol:SMTBridge",
        "label": "aggregatorFee",
        "offset": 0,
        "slot": "3",
        "type": "t_uint256"
      }
    ],
    "types": {
      "t_address": {
        "encoding": "inplace",
        "label": "address",
        "numberOfBytes": "20"
      },
      "t_uint256": {
        "encoding": "inplace",
        "label": "uint256",
        "numberOfBytes": "32"
      }
    }
  }
}