{
  "address": "0x5FbDB2315678afecb367f032d93F642f64180aa3",
  "abi": [
    {
      "inputs": [
        {
          "internalType": "address",
          "name": "_feeToSetter",
          "type": "address"
        }
      ],
      "payable": false,
      "stateMutability": "nonpayable",
      "type": "constructor"
    },
    {
      "anonymous": false,
      "inputs": [
        {
          "indexed": true,
          "internalType": "address",
          "name": "token0",
          "type": "address"
        },
        {
          "indexed": true,
          "internalType": "address",
          "name": "token1",
          "type": "address"
        },
        {
          "indexed": false,
          "internalType": "address",
          "name": "pair",
          "type": "address"
        },
        {
          "indexed": false,
          "internalType": "uint256",
          "name": "",
          "type": "uint256"
        }
      ],
      "name": "PairCreated",
      "type": "event"
    },
    {
      "constant": true,
      "inputs": [],
      "name": "INIT_CODE_PAIR_HASH",
      "outputs": [
        {
          "internalType": "bytes32",
          "name": "",
          "type": "bytes32"
        }
      ],
      "payable": false,
      "stateMutability": "view",
      "type": "function"
    },
    {
      "constant": true,
      "inputs": [
        {
          "internalType": "uint256",
          "name": "",
          "type": "uint256"
        }
      ],
      "name": "allPairs",
      "outputs": [
        {
          "internalType": "address",
          "name": "",
          "type": "address"
        }
      ],
      "payable": false,
      "stateMutability": "view",
      "type": "function"
    },
    {
      "constant": true,
      "inputs": [],
      "name": "allPairsLength",
      "outputs": [
        {
          "internalType": "uint256",
          "name": "",
          "type": "uint256"
        }
      ],
      "payable": false,
      "stateMutability": "view",
      "type": "function"
    },
    {
      "constant": false,
      "inputs": [
        {
          "internalType": "address",
          "name": "tokenA",
          "type": "address"
        },
        {
          "internalType": "address",
          "name": "tokenB",
          "type": "address"
        }
      ],
      "name": "createPair",
      "outputs": [
        {
          "internalType": "address",
          "name": "pair",
          "type": "address"
        }
      ],
      "payable": false,
      "stateMutability": "nonpayable",
      "type": "function"
    },
    {
      "constant": true,
      "inputs": [],
      "name": "feeTo",
      "outputs": [
        {
          "internalType": "address",
          "name": "",
          "type": "address"
        }
      ],
      "payable": false,
      "stateMutability": "view",
      "type": "function"
    },
    {
      "constant": true,
      "inputs": [],
      "name": "feeToSetter",
      "outputs": [
        {
          "internalType": "address",
          "name": "",
          "type": "address"
        }
      ],
      "payable": false,
      "stateMutability": "view",
      "type": "function"
    },
    {
      "constant": true,
      "inputs": [
        {
          "internalType": "address",
          "name": "",
          "type": "address"
        },
        {
          "internalType": "address",
          "name": "",
          "type": "address"
        }
      ],
      "name": "getPair",
      "outputs": [
        {
          "internalType": "address",
          "name": "",
          "type": "address"
        }
      ],
      "payable": false,
      "stateMutability": "view",
      "type": "function"
    },
    {
      "constant": false,
      "inputs": [
        {
          "internalType": "address",
          "name": "_feeTo",
          "type": "address"
        }
      ],
      "name": "setFeeTo",
      "outputs": [],
      "payable": false,
      "stateMutability": "nonpayable",
      "type": "function"
    },
    {
      "constant": false,
      "inputs": [
        {
          "internalType": "address",
          "name": "_feeToSetter",
          "type": "address"
        }
      ],
      "name": "setFeeToSetter",
      "outputs": [],
      "payable": false,
      "stateMutability": "nonpayable",
      "type": "function"
    }
  ],
  "transactionHash": "0x292e307a7c978e60aca736d12d1d8462c4051d864c9e80b049a7b1d01370b0e0",
  "args": [
    "0xf39Fd6e51aad88F6F4ce6aB8827279cffFb92266"
  ],
  "solcInputHash": "2221bf3c9a6ce4f364900a6a52edef98",
  "bytecode": "0x608060405234801561001057600080fd5b50604051612d31380380612d318339818101604052602081101561003357600080fd5b5051600180546001600160a01b0319166001600160a01b03909216919091179055612cce806100636000396000f3fe608060405234801561001057600080fd5b50600436106100a35760003560e01c80635855a25a11610076578063c9c653961161005b578063c9c653961461013b578063e6a4390514610169578063f46901ed14610197576100a3565b80635855a25a1461010b578063a2e74af614610113576100a3565b8063017e7e58146100a8578063094b7415146100cc5780631e3dd18b146100d4578063574f2ba3146100f1575b600080fd5b6100b06101bd565b604080516001600160a01b039092168252519081900360200190f35b6100b06101cc565b6100b0600480360360208110156100ea57600080fd5b50356101db565b6100f9610202565b60408051918252519081900360200190f35b6100f9610208565b6101396004803603602081101561012957600080fd5b50356001600160a01b03166102b9565b005b6100b06004803603604081101561015157600080fd5b506001600160a01b0381358116916020013516610347565b6100b06004803603604081101561017f57600080fd5b506001600160a01b03813581169160200135166106a5565b610139600480360360208110156101ad57600080fd5b50356001600160a01b03166106cb565b6000546001600160a01b031681565b6001546001600160a01b031681565b600381815481106101e857fe5b6000918252602090912001546001600160a01b0316905081565b60035490565b60405161021760208201610759565b6020820181038252601f19601f820116604052506040516020018082805190602001908083835b6020831061027b57805182527fffffffffffffffffffffffffffffffffffffffffffffffffffffffffffffffe0909201916020918201910161023e565b6001836020036101000a0380198251168184511680821785525050505050509050019150506040516020818303038152906040528051906020012081565b6001546001600160a01b03163314610318576040805162461bcd60e51b815260206004820152601460248201527f4943494342537761703a20464f5242494444454e000000000000000000000000604482015290519081900360640190fd5b6001805473ffffffffffffffffffffffffffffffffffffffff19166001600160a01b0392909216919091179055565b6000816001600160a01b0316836001600160a01b031614156103b0576040805162461bcd60e51b815260206004820152601e60248201527f4943494342537761703a204944454e544943414c5f4144445245535345530000604482015290519081900360640190fd5b600080836001600160a01b0316856001600160a01b0316106103d35783856103d6565b84845b90925090506001600160a01b038216610436576040805162461bcd60e51b815260206004820152601760248201527f4943494342537761703a205a45524f5f41444452455353000000000000000000604482015290519081900360640190fd5b6001600160a01b038281166000908152600260209081526040808320858516845290915290205416156104b0576040805162461bcd60e51b815260206004820152601660248201527f4943494342537761703a20504149525f45584953545300000000000000000000604482015290519081900360640190fd5b6060604051806020016104c290610759565b6020820181038252601f19601f8201166040525090506000838360405160200180836001600160a01b03166001600160a01b031660601b8152601401826001600160a01b03166001600160a01b031660601b815260140192505050604051602081830303815290604052805190602001209050808251602084016000f5604080517f485cc9550000000000000000000000000000000000000000000000000000000081526001600160a01b038781166004830152868116602483015291519297509087169163485cc9559160448082019260009290919082900301818387803b1580156105ae57600080fd5b505af11580156105c2573d6000803e3d6000fd5b505050506001600160a01b0384811660008181526002602081815260408084208987168086529083528185208054978d1673ffffffffffffffffffffffffffffffffffffffff1998891681179091559383528185208686528352818520805488168517905560038054600181018255958190527fc2575a0e9e593c00f959f8c92f12db2869c3395a3b0502d05e2516446f71f85b90950180549097168417909655925483519283529082015281517f0d3648bd0f6ba80134a33ba9275ac585d9d315f0ad8355cddefde31afa28d0e9929181900390910190a35050505092915050565b60026020908152600092835260408084209091529082529020546001600160a01b031681565b6000546001600160a01b0316331461072a576040805162461bcd60e51b815260206004820152601460248201527f4943494342537761703a20464f5242494444454e000000000000000000000000604482015290519081900360640190fd5b6000805473ffffffffffffffffffffffffffffffffffffffff19166001600160a01b0392909216919091179055565b612533806107678339019056fe60806040526001600c5534801561001557600080fd5b5060405146908060526124e18239604080519182900360520182208282018252600a835269024a1a4a1a129bbb0b8160b51b6020938401528151808301835260018152603160f81b908401528151808401919091527fe32e4df9743dab88bdbc41f7cf4d6dd141acadd99d70c696c3555221881d0bf4818301527fc89efdaa54c0f20c7adf612882df0950f5a951637e0307cdcb4c672f298b8bc6606082015260808101949094523060a0808601919091528151808603909101815260c09094019052825192019190912060035550600580546001600160a01b031916331790556123dc806101056000396000f3fe608060405234801561001057600080fd5b50600436106101b95760003560e01c80636a627842116100f9578063ba9a7a5611610097578063d21220a711610071578063d21220a714610544578063d505accf1461054c578063dd62ed3e1461059d578063fff6cae9146105cb576101b9565b8063ba9a7a561461050e578063bc25cf7714610516578063c45a01551461053c576101b9565b80637ecebe00116100d35780637ecebe001461047557806389afcb441461049b57806395d89b41146104da578063a9059cbb146104e2576101b9565b80636a6278421461042157806370a08231146104475780637464fc3d1461046d576101b9565b806323b872dd116101665780633644e515116101405780633644e515146103db578063485cc955146103e35780635909c0d5146104115780635a3d549314610419576101b9565b806323b872dd1461037f57806330adf81f146103b5578063313ce567146103bd576101b9565b8063095ea7b311610197578063095ea7b3146103015780630dfe16811461034157806318160ddd14610365576101b9565b8063022c0d9f146101be57806306fdde031461024c5780630902f1ac146102c9575b600080fd5b61024a600480360360808110156101d457600080fd5b8135916020810135916001600160a01b03604083013516919081019060808101606082013564010000000081111561020b57600080fd5b82018360208201111561021d57600080fd5b8035906020019184600183028401116401000000008311171561023f57600080fd5b5090925090506105d3565b005b610254610b33565b6040805160208082528351818301528351919283929083019185019080838360005b8381101561028e578181015183820152602001610276565b50505050905090810190601f1680156102bb5780820380516001836020036101000a031916815260200191505b509250505060405180910390f35b6102d1610b6c565b604080516001600160701b03948516815292909316602083015263ffffffff168183015290519081900360600190f35b61032d6004803603604081101561031757600080fd5b506001600160a01b038135169060200135610b96565b604080519115158252519081900360200190f35b610349610bad565b604080516001600160a01b039092168252519081900360200190f35b61036d610bbc565b60408051918252519081900360200190f35b61032d6004803603606081101561039557600080fd5b506001600160a01b03813581169160208101359091169060400135610bc2565b61036d610c7a565b6103c5610c9e565b6040805160ff9092168252519081900360200190f35b61036d610ca3565b61024a600480360360408110156103f957600080fd5b506001600160a01b0381358116916020013516610ca9565b61036d610d4e565b61036d610d54565b61036d6004803603602081101561043757600080fd5b50356001600160a01b0316610d5a565b61036d6004803603602081101561045d57600080fd5b50356001600160a01b0316611066565b61036d611078565b61036d6004803603602081101561048b57600080fd5b50356001600160a01b031661107e565b6104c1600480360360208110156104b157600080fd5b50356001600160a01b0316611090565b6040805192835260208301919091528051918290030190f35b610254611442565b61032d600480360360408110156104f857600080fd5b506001600160a01b03813516906020013561147b565b61036d611488565b61024a6004803603602081101561052c57600080fd5b50356001600160a01b031661148e565b610349611605565b610349611614565b61024a600480360360e081101561056257600080fd5b506001600160a01b03813581169160208101359091169060408101359060608101359060ff6080820135169060a08101359060c00135611623565b61036d600480360360408110156105b357600080fd5b506001600160a01b038135811691602001351661184b565b61024a611868565b600c5460011461062a576040805162461bcd60e51b815260206004820152601160248201527f4943494342537761703a204c4f434b4544000000000000000000000000000000604482015290519081900360640190fd5b6000600c558415158061063d5750600084115b6106785760405162461bcd60e51b81526004018080602001828103825260258152602001806123836025913960400191505060405180910390fd5b600080610683610b6c565b5091509150816001600160701b0316871080156106a85750806001600160701b031686105b6106e35760405162461bcd60e51b81526004018080602001828103825260218152602001806123166021913960400191505060405180910390fd5b60065460075460009182916001600160a01b039182169190811690891682148015906107215750806001600160a01b0316896001600160a01b031614155b610772576040805162461bcd60e51b815260206004820152601560248201527f4943494342537761703a20494e56414c49445f544f0000000000000000000000604482015290519081900360640190fd5b8a1561078357610783828a8d6119d6565b891561079457610794818a8c6119d6565b861561084f57886001600160a01b03166371aa172c338d8d8c8c6040518663ffffffff1660e01b815260040180866001600160a01b03166001600160a01b03168152602001858152602001848152602001806020018281038252848482818152602001925080828437600081840152601f19601f8201169050808301925050509650505050505050600060405180830381600087803b15801561083657600080fd5b505af115801561084a573d6000803e3d6000fd5b505050505b604080516370a0823160e01b815230600482015290516001600160a01b038416916370a08231916024808301926020929190829003018186803b15801561089557600080fd5b505afa1580156108a9573d6000803e3d6000fd5b505050506040513d60208110156108bf57600080fd5b5051604080516370a0823160e01b815230600482015290519195506001600160a01b038316916370a0823191602480820192602092909190829003018186803b15801561090b57600080fd5b505afa15801561091f573d6000803e3d6000fd5b505050506040513d602081101561093557600080fd5b5051925060009150506001600160701b0385168a90038311610958576000610967565b89856001600160701b03160383035b9050600089856001600160701b0316038311610984576000610993565b89856001600160701b03160383035b905060008211806109a45750600081115b6109df5760405162461bcd60e51b81526004018080602001828103825260248152602001806123376024913960400191505060405180910390fd5b6000610a136109f584600363ffffffff611b7316565b610a07876103e863ffffffff611b7316565b9063ffffffff611bdf16565b90506000610a2b6109f584600363ffffffff611b7316565b9050610a5c620f4240610a506001600160701b038b8116908b1663ffffffff611b7316565b9063ffffffff611b7316565b610a6c838363ffffffff611b7316565b1015610abf576040805162461bcd60e51b815260206004820152600c60248201527f4943494342537761703a204b0000000000000000000000000000000000000000604482015290519081900360640190fd5b5050610acd84848888611c37565b60408051838152602081018390528082018d9052606081018c905290516001600160a01b038b169133917fd78ad95fa46c994b6551d0da85fc275fe613ce37657fb8d5e3d130840159d8229181900360800190a350506001600c55505050505050505050565b6040518060400160405280600a81526020017f494349434253776170200000000000000000000000000000000000000000000081525081565b6008546001600160701b0380821692600160701b830490911691600160e01b900463ffffffff1690565b6000610ba3338484611e25565b5060015b92915050565b6006546001600160a01b031681565b60005481565b6001600160a01b03831660009081526002602090815260408083203384529091528120547fffffffffffffffffffffffffffffffffffffffffffffffffffffffffffffffff14610c65576001600160a01b0384166000908152600260209081526040808320338452909152902054610c40908363ffffffff611bdf16565b6001600160a01b03851660009081526002602090815260408083203384529091529020555b610c70848484611e87565b5060019392505050565b7f6e71edae12b1b97f4d1f60370fef10105fa2faae0126114a169c64845d6126c981565b601281565b60035481565b6005546001600160a01b03163314610d08576040805162461bcd60e51b815260206004820152601460248201527f4943494342537761703a20464f5242494444454e000000000000000000000000604482015290519081900360640190fd5b600680546001600160a01b039384167fffffffffffffffffffffffff00000000000000000000000000000000000000009182161790915560078054929093169116179055565b60095481565b600a5481565b6000600c54600114610db3576040805162461bcd60e51b815260206004820152601160248201527f4943494342537761703a204c4f434b4544000000000000000000000000000000604482015290519081900360640190fd5b6000600c81905580610dc3610b6c565b50600654604080516370a0823160e01b815230600482015290519395509193506000926001600160a01b03909116916370a08231916024808301926020929190829003018186803b158015610e1757600080fd5b505afa158015610e2b573d6000803e3d6000fd5b505050506040513d6020811015610e4157600080fd5b5051600754604080516370a0823160e01b815230600482015290519293506000926001600160a01b03909216916370a0823191602480820192602092909190829003018186803b158015610e9457600080fd5b505afa158015610ea8573d6000803e3d6000fd5b505050506040513d6020811015610ebe57600080fd5b505190506000610edd836001600160701b03871663ffffffff611bdf16565b90506000610efa836001600160701b03871663ffffffff611bdf16565b90506000610f088787611f41565b60005490915080610f4557610f316103e8610a07610f2c878763ffffffff611b7316565b61209f565b9850610f4060006103e86120f1565b610f94565b610f916001600160701b038916610f62868463ffffffff611b7316565b81610f6957fe5b046001600160701b038916610f84868563ffffffff611b7316565b81610f8b57fe5b04612187565b98505b60008911610fd35760405162461bcd60e51b81526004018080602001828103825260288152602001806122cd6028913960400191505060405180910390fd5b610fdd8a8a6120f1565b610fe986868a8a611c37565b811561101957600854611015906001600160701b0380821691600160701b90041663ffffffff611b7316565b600b555b6040805185815260208101859052815133927f4c209b5fc8ad50758f13e2e1088ba56a560dff690a1c6fef26394f4c03821c4f928290030190a250506001600c5550949695505050505050565b60016020526000908152604090205481565b600b5481565b60046020526000908152604090205481565b600080600c546001146110ea576040805162461bcd60e51b815260206004820152601160248201527f4943494342537761703a204c4f434b4544000000000000000000000000000000604482015290519081900360640190fd5b6000600c819055806110fa610b6c565b50600654600754604080516370a0823160e01b815230600482015290519496509294506001600160a01b039182169391169160009184916370a08231916024808301926020929190829003018186803b15801561115657600080fd5b505afa15801561116a573d6000803e3d6000fd5b505050506040513d602081101561118057600080fd5b5051604080516370a0823160e01b815230600482015290519192506000916001600160a01b038516916370a08231916024808301926020929190829003018186803b1580156111ce57600080fd5b505afa1580156111e2573d6000803e3d6000fd5b505050506040513d60208110156111f857600080fd5b5051306000908152600160205260408120549192506112178888611f41565b6000549091508061122e848763ffffffff611b7316565b8161123557fe5b049a5080611249848663ffffffff611b7316565b8161125057fe5b04995060008b118015611263575060008a115b61129e5760405162461bcd60e51b815260040180806020018281038252602881526020018061235b6028913960400191505060405180910390fd5b6112a8308461219f565b6112b3878d8d6119d6565b6112be868d8c6119d6565b604080516370a0823160e01b815230600482015290516001600160a01b038916916370a08231916024808301926020929190829003018186803b15801561130457600080fd5b505afa158015611318573d6000803e3d6000fd5b505050506040513d602081101561132e57600080fd5b5051604080516370a0823160e01b815230600482015290519196506001600160a01b038816916370a0823191602480820192602092909190829003018186803b15801561137a57600080fd5b505afa15801561138e573d6000803e3d6000fd5b505050506040513d60208110156113a457600080fd5b505193506113b485858b8b611c37565b81156113e4576008546113e0906001600160701b0380821691600160701b90041663ffffffff611b7316565b600b555b604080518c8152602081018c905281516001600160a01b038f169233927fdccd412f0b1252819cb1fd330b93224ca42612892bb3f4f789976e6d81936496929081900390910190a35050505050505050506001600c81905550915091565b6040518060400160405280600a81526020017f50616e63616b652d4c500000000000000000000000000000000000000000000081525081565b6000610ba3338484611e87565b6103e881565b600c546001146114e5576040805162461bcd60e51b815260206004820152601160248201527f4943494342537761703a204c4f434b4544000000000000000000000000000000604482015290519081900360640190fd5b6000600c55600654600754600854604080516370a0823160e01b815230600482015290516001600160a01b039485169490931692611594928592879261158f926001600160701b03169185916370a0823191602480820192602092909190829003018186803b15801561155757600080fd5b505afa15801561156b573d6000803e3d6000fd5b505050506040513d602081101561158157600080fd5b50519063ffffffff611bdf16565b6119d6565b600854604080516370a0823160e01b815230600482015290516115fb928492879261158f92600160701b90046001600160701b0316916001600160a01b038616916370a0823191602480820192602092909190829003018186803b15801561155757600080fd5b50506001600c5550565b6005546001600160a01b031681565b6007546001600160a01b031681565b42841015611678576040805162461bcd60e51b815260206004820152601260248201527f4943494342537761703a20455850495245440000000000000000000000000000604482015290519081900360640190fd5b6003546001600160a01b0380891660008181526004602090815260408083208054600180820190925582517f6e71edae12b1b97f4d1f60370fef10105fa2faae0126114a169c64845d6126c98186015280840196909652958d166060860152608085018c905260a085019590955260c08085018b90528151808603909101815260e0850182528051908301207f19010000000000000000000000000000000000000000000000000000000000006101008601526101028501969096526101228085019690965280518085039096018652610142840180825286519683019690962095839052610162840180825286905260ff89166101828501526101a284018890526101c28401879052519193926101e280820193601f1981019281900390910190855afa1580156117ae573d6000803e3d6000fd5b5050604051601f1901519150506001600160a01b038116158015906117e45750886001600160a01b0316816001600160a01b0316145b611835576040805162461bcd60e51b815260206004820152601c60248201527f4943494342537761703a20494e56414c49445f5349474e415455524500000000604482015290519081900360640190fd5b611840898989611e25565b505050505050505050565b600260209081526000928352604080842090915290825290205481565b600c546001146118bf576040805162461bcd60e51b815260206004820152601160248201527f4943494342537761703a204c4f434b4544000000000000000000000000000000604482015290519081900360640190fd5b6000600c55600654604080516370a0823160e01b815230600482015290516119cf926001600160a01b0316916370a08231916024808301926020929190829003018186803b15801561191057600080fd5b505afa158015611924573d6000803e3d6000fd5b505050506040513d602081101561193a57600080fd5b5051600754604080516370a0823160e01b815230600482015290516001600160a01b03909216916370a0823191602480820192602092909190829003018186803b15801561198757600080fd5b505afa15801561199b573d6000803e3d6000fd5b505050506040513d60208110156119b157600080fd5b50516008546001600160701b0380821691600160701b900416611c37565b6001600c55565b604080518082018252601981527f7472616e7366657228616464726573732c75696e74323536290000000000000060209182015281516001600160a01b0385811660248301526044808301869052845180840390910181526064909201845291810180516001600160e01b03167fa9059cbb000000000000000000000000000000000000000000000000000000001781529251815160009460609489169392918291908083835b60208310611a9c5780518252601f199092019160209182019101611a7d565b6001836020036101000a0380198251168184511680821785525050505050509050019150506000604051808303816000865af19150503d8060008114611afe576040519150601f19603f3d011682016040523d82523d6000602084013e611b03565b606091505b5091509150818015611b31575080511580611b315750808060200190516020811015611b2e57600080fd5b50515b611b6c5760405162461bcd60e51b81526004018080602001828103825260218152602001806122f56021913960400191505060405180910390fd5b5050505050565b6000811580611b8e57505080820282828281611b8b57fe5b04145b610ba7576040805162461bcd60e51b815260206004820152601460248201527f64732d6d6174682d6d756c2d6f766572666c6f77000000000000000000000000604482015290519081900360640190fd5b80820382811115610ba7576040805162461bcd60e51b815260206004820152601560248201527f64732d6d6174682d7375622d756e646572666c6f770000000000000000000000604482015290519081900360640190fd5b6001600160701b038411801590611c5557506001600160701b038311155b611ca6576040805162461bcd60e51b815260206004820152601360248201527f4943494342537761703a204f564552464c4f5700000000000000000000000000604482015290519081900360640190fd5b60085463ffffffff42811691600160e01b90048116820390811615801590611cd657506001600160701b03841615155b8015611cea57506001600160701b03831615155b15611d5b578063ffffffff16611d1885611d038661223d565b6001600160e01b03169063ffffffff61224f16565b600980546001600160e01b03929092169290920201905563ffffffff8116611d4384611d038761223d565b600a80546001600160e01b0392909216929092020190555b600880547fffffffffffffffffffffffffffffffffffff0000000000000000000000000000166001600160701b03888116919091177fffffffff0000000000000000000000000000ffffffffffffffffffffffffffff16600160701b8883168102919091176001600160e01b0316600160e01b63ffffffff871602179283905560408051848416815291909304909116602082015281517f1c411e9a96e071241c2f21f7726b17ae89e3cab4c78be50e062b03a9fffbbad1929181900390910190a1505050505050565b6001600160a01b03808416600081815260026020908152604080832094871680845294825291829020859055815185815291517f8c5be1e5ebec7d5bd14f71427d1e84f3dd0314c0f7b2291e5b200ac8c7c3b9259281900390910190a3505050565b6001600160a01b038316600090815260016020526040902054611eb0908263ffffffff611bdf16565b6001600160a01b038085166000908152600160205260408082209390935590841681522054611ee5908263ffffffff61227416565b6001600160a01b0380841660008181526001602090815260409182902094909455805185815290519193928716927fddf252ad1be2c89b69c2b068fc378daa952ba7f163c4a11628f55a4df523b3ef92918290030190a3505050565b600080600560009054906101000a90046001600160a01b03166001600160a01b031663017e7e586040518163ffffffff1660e01b815260040160206040518083038186803b158015611f9257600080fd5b505afa158015611fa6573d6000803e3d6000fd5b505050506040513d6020811015611fbc57600080fd5b5051600b546001600160a01b03821615801594509192509061208b578015612086576000611fff610f2c6001600160701b0388811690881663ffffffff611b7316565b9050600061200c8361209f565b90508082111561208357600061203a61202b848463ffffffff611bdf16565b6000549063ffffffff611b7316565b9050600061205f8361205386600563ffffffff611b7316565b9063ffffffff61227416565b9050600081838161206c57fe5b049050801561207f5761207f87826120f1565b5050505b50505b612097565b8015612097576000600b555b505092915050565b600060038211156120e2575080600160028204015b818110156120dc578091506002818285816120cb57fe5b0401816120d457fe5b0490506120b4565b506120ec565b81156120ec575060015b919050565b600054612104908263ffffffff61227416565b60009081556001600160a01b03831681526001602052604090205461212f908263ffffffff61227416565b6001600160a01b03831660008181526001602090815260408083209490945583518581529351929391927fddf252ad1be2c89b69c2b068fc378daa952ba7f163c4a11628f55a4df523b3ef9281900390910190a35050565b60008183106121965781612198565b825b9392505050565b6001600160a01b0382166000908152600160205260409020546121c8908263ffffffff611bdf16565b6001600160a01b038316600090815260016020526040812091909155546121f5908263ffffffff611bdf16565b60009081556040805183815290516001600160a01b038516917fddf252ad1be2c89b69c2b068fc378daa952ba7f163c4a11628f55a4df523b3ef919081900360200190a35050565b6001600160701b0316600160701b0290565b60006001600160701b0382166001600160e01b0384168161226c57fe5b049392505050565b80820182811015610ba7576040805162461bcd60e51b815260206004820152601460248201527f64732d6d6174682d6164642d6f766572666c6f77000000000000000000000000604482015290519081900360640190fdfe4943494342537761703a20494e53554646494349454e545f4c49515549444954595f4d494e544544494349434253776170466163746f72793a205452414e534645525f4641494c45444943494342537761703a20494e53554646494349454e545f4c49515549444954594943494342537761703a20494e53554646494349454e545f494e5055545f414d4f554e544943494342537761703a20494e53554646494349454e545f4c49515549444954595f4255524e45444943494342537761703a20494e53554646494349454e545f4f55545055545f414d4f554e54a265627a7a72315820e73e7fb6efcab595fc9b2fd58c9990e0b9339107de7727b3eb460e23ee0b51e664736f6c63430005100032454950373132446f6d61696e28737472696e67206e616d652c737472696e672076657273696f6e2c75696e7432353620636861696e49642c6164647265737320766572696679696e67436f6e747261637429a265627a7a723158200501cf47b8ec18482bb5acc743f74300a7e76b0774035488fafdcba10a62af5a64736f6c63430005100032",
  "devdoc": {
    "methods": {}
  },
  "userdoc": {
    "methods": {}
  },
  "storageLayout": {
    "storage": [
      {
        "astId": 1929,
        "contract": "contracts/libs/dexFactory.sol:ICICBSwapFactory",
        "label": "feeTo",
        "offset": 0,
        "slot": "0",
        "type": "t_address"
      },
      {
        "astId": 1931,
        "contract": "contracts/libs/dexFactory.sol:ICICBSwapFactory",
        "label": "feeToSetter",
        "offset": 0,
        "slot": "1",
        "type": "t_address"
      },
      {
        "astId": 1937,
        "contract": "contracts/libs/dexFactory.sol:ICICBSwapFactory",
        "label": "getPair",
        "offset": 0,
        "slot": "2",
        "type": "t_mapping(t_address,t_mapping(t_address,t_address))"
      },
      {
        "astId": 1940,
        "contract": "contracts/libs/dexFactory.sol:ICICBSwapFactory",
        "label": "allPairs",
        "offset": 0,
        "slot": "3",
        "type": "t_array(t_address)dyn_storage"
      }
    ],
    "types": {
      "t_address": {
        "encoding": "inplace",
        "label": "address",
        "numberOfBytes": "20"
      },
      "t_array(t_address)dyn_storage": {
        "base": "t_address",
        "encoding": "dynamic_array",
        "label": "address[]",
        "numberOfBytes": "32"
      },
      "t_mapping(t_address,t_address)": {
        "encoding": "mapping",
        "key": "t_address",
        "label": "mapping(address => address)",
        "numberOfBytes": "32",
        "value": "t_address"
      },
      "t_mapping(t_address,t_mapping(t_address,t_address))": {
        "encoding": "mapping",
        "key": "t_address",
        "label": "mapping(address => mapping(address => address))",
        "numberOfBytes": "32",
        "value": "t_mapping(t_address,t_address)"
      }
    }
  }
}